{
  "_format": "hh-sol-artifact-1",
  "contractName": "NFT",
  "sourceName": "contracts/NFT.sol",
  "abi": [
    {
      "inputs": [
        {
          "internalType": "string",
          "name": "name_",
          "type": "string"
        },
        {
          "internalType": "string",
          "name": "symbol_",
          "type": "string"
        }
      ],
      "stateMutability": "nonpayable",
      "type": "constructor"
    },
    {
      "anonymous": false,
      "inputs": [
        {
          "indexed": true,
          "internalType": "address",
          "name": "owner",
          "type": "address"
        },
        {
          "indexed": true,
          "internalType": "address",
          "name": "approved",
          "type": "address"
        },
        {
          "indexed": true,
          "internalType": "uint256",
          "name": "tokenId",
          "type": "uint256"
        }
      ],
      "name": "Approval",
      "type": "event"
    },
    {
      "anonymous": false,
      "inputs": [
        {
          "indexed": true,
          "internalType": "address",
          "name": "owner",
          "type": "address"
        },
        {
          "indexed": true,
          "internalType": "address",
          "name": "operator",
          "type": "address"
        },
        {
          "indexed": false,
          "internalType": "bool",
          "name": "approved",
          "type": "bool"
        }
      ],
      "name": "ApprovalForAll",
      "type": "event"
    },
    {
      "anonymous": false,
      "inputs": [
        {
          "indexed": true,
          "internalType": "address",
          "name": "from",
          "type": "address"
        },
        {
          "indexed": true,
          "internalType": "address",
          "name": "to",
          "type": "address"
        },
        {
          "indexed": true,
          "internalType": "uint256",
          "name": "tokenId",
          "type": "uint256"
        }
      ],
      "name": "Transfer",
      "type": "event"
    },
    {
      "inputs": [
        {
          "internalType": "address",
          "name": "to",
          "type": "address"
        },
        {
          "internalType": "uint256",
          "name": "tokenId",
          "type": "uint256"
        }
      ],
      "name": "approve",
      "outputs": [],
      "stateMutability": "nonpayable",
      "type": "function"
    },
    {
      "inputs": [
        {
          "internalType": "address",
          "name": "owner",
          "type": "address"
        }
      ],
      "name": "balanceOf",
      "outputs": [
        {
          "internalType": "uint256",
          "name": "",
          "type": "uint256"
        }
      ],
      "stateMutability": "view",
      "type": "function"
    },
    {
      "inputs": [],
      "name": "baseURI",
      "outputs": [
        {
          "internalType": "string",
          "name": "",
          "type": "string"
        }
      ],
      "stateMutability": "view",
      "type": "function"
    },
    {
      "inputs": [
        {
          "internalType": "uint256",
          "name": "tokenId",
          "type": "uint256"
        }
      ],
      "name": "exists",
      "outputs": [
        {
          "internalType": "bool",
          "name": "",
          "type": "bool"
        }
      ],
      "stateMutability": "view",
      "type": "function"
    },
    {
      "inputs": [
        {
          "internalType": "uint256",
          "name": "tokenId",
          "type": "uint256"
        }
      ],
      "name": "getApproved",
      "outputs": [
        {
          "internalType": "address",
          "name": "",
          "type": "address"
        }
      ],
      "stateMutability": "view",
      "type": "function"
    },
    {
      "inputs": [
        {
          "internalType": "address",
          "name": "owner",
          "type": "address"
        },
        {
          "internalType": "address",
          "name": "operator",
          "type": "address"
        }
      ],
      "name": "isApprovedForAll",
      "outputs": [
        {
          "internalType": "bool",
          "name": "",
          "type": "bool"
        }
      ],
      "stateMutability": "view",
      "type": "function"
    },
    {
      "inputs": [
        {
          "internalType": "address",
          "name": "to",
          "type": "address"
        },
        {
          "internalType": "uint256",
          "name": "quantity",
          "type": "uint256"
        },
        {
          "internalType": "bytes",
          "name": "_data",
          "type": "bytes"
        },
        {
          "internalType": "bool",
          "name": "safe",
          "type": "bool"
        }
      ],
      "name": "mint",
      "outputs": [],
      "stateMutability": "nonpayable",
      "type": "function"
    },
    {
      "inputs": [],
      "name": "name",
      "outputs": [
        {
          "internalType": "string",
          "name": "",
          "type": "string"
        }
      ],
      "stateMutability": "view",
      "type": "function"
    },
    {
      "inputs": [],
      "name": "nextOwnerToExplicitlySet",
      "outputs": [
        {
          "internalType": "uint256",
          "name": "",
          "type": "uint256"
        }
      ],
      "stateMutability": "view",
      "type": "function"
    },
    {
      "inputs": [
        {
          "internalType": "address",
          "name": "owner",
          "type": "address"
        }
      ],
      "name": "numberMinted",
      "outputs": [
        {
          "internalType": "uint256",
          "name": "",
          "type": "uint256"
        }
      ],
      "stateMutability": "view",
      "type": "function"
    },
    {
      "inputs": [
        {
          "internalType": "uint256",
          "name": "tokenId",
          "type": "uint256"
        }
      ],
      "name": "ownerOf",
      "outputs": [
        {
          "internalType": "address",
          "name": "",
          "type": "address"
        }
      ],
      "stateMutability": "view",
      "type": "function"
    },
    {
      "inputs": [
        {
          "internalType": "address",
          "name": "to",
          "type": "address"
        },
        {
          "internalType": "uint256",
          "name": "quantity",
          "type": "uint256"
        },
        {
          "internalType": "bytes",
          "name": "_data",
          "type": "bytes"
        }
      ],
      "name": "safeMint",
      "outputs": [],
      "stateMutability": "nonpayable",
      "type": "function"
    },
    {
      "inputs": [
        {
          "internalType": "address",
          "name": "to",
          "type": "address"
        },
        {
          "internalType": "uint256",
          "name": "quantity",
          "type": "uint256"
        }
      ],
      "name": "safeMint",
      "outputs": [],
      "stateMutability": "nonpayable",
      "type": "function"
    },
    {
      "inputs": [
        {
          "internalType": "address",
          "name": "from",
          "type": "address"
        },
        {
          "internalType": "address",
          "name": "to",
          "type": "address"
        },
        {
          "internalType": "uint256",
          "name": "tokenId",
          "type": "uint256"
        }
      ],
      "name": "safeTransferFrom",
      "outputs": [],
      "stateMutability": "nonpayable",
      "type": "function"
    },
    {
      "inputs": [
        {
          "internalType": "address",
          "name": "from",
          "type": "address"
        },
        {
          "internalType": "address",
          "name": "to",
          "type": "address"
        },
        {
          "internalType": "uint256",
          "name": "tokenId",
          "type": "uint256"
        },
        {
          "internalType": "bytes",
          "name": "_data",
          "type": "bytes"
        }
      ],
      "name": "safeTransferFrom",
      "outputs": [],
      "stateMutability": "nonpayable",
      "type": "function"
    },
    {
      "inputs": [
        {
          "internalType": "address",
          "name": "operator",
          "type": "address"
        },
        {
          "internalType": "bool",
          "name": "approved",
          "type": "bool"
        }
      ],
      "name": "setApprovalForAll",
      "outputs": [],
      "stateMutability": "nonpayable",
      "type": "function"
    },
    {
      "inputs": [
        {
          "internalType": "bytes4",
          "name": "interfaceId",
          "type": "bytes4"
        }
      ],
      "name": "supportsInterface",
      "outputs": [
        {
          "internalType": "bool",
          "name": "",
          "type": "bool"
        }
      ],
      "stateMutability": "view",
      "type": "function"
    },
    {
      "inputs": [],
      "name": "symbol",
      "outputs": [
        {
          "internalType": "string",
          "name": "",
          "type": "string"
        }
      ],
      "stateMutability": "view",
      "type": "function"
    },
    {
      "inputs": [
        {
          "internalType": "uint256",
          "name": "index",
          "type": "uint256"
        }
      ],
      "name": "tokenByIndex",
      "outputs": [
        {
          "internalType": "uint256",
          "name": "",
          "type": "uint256"
        }
      ],
      "stateMutability": "view",
      "type": "function"
    },
    {
      "inputs": [
        {
          "internalType": "address",
          "name": "owner",
          "type": "address"
        },
        {
          "internalType": "uint256",
          "name": "index",
          "type": "uint256"
        }
      ],
      "name": "tokenOfOwnerByIndex",
      "outputs": [
        {
          "internalType": "uint256",
          "name": "",
          "type": "uint256"
        }
      ],
      "stateMutability": "view",
      "type": "function"
    },
    {
      "inputs": [
        {
          "internalType": "uint256",
          "name": "tokenId",
          "type": "uint256"
        }
      ],
      "name": "tokenURI",
      "outputs": [
        {
          "internalType": "string",
          "name": "",
          "type": "string"
        }
      ],
      "stateMutability": "view",
      "type": "function"
    },
    {
      "inputs": [],
      "name": "totalMinted",
      "outputs": [
        {
          "internalType": "uint256",
          "name": "",
          "type": "uint256"
        }
      ],
      "stateMutability": "view",
      "type": "function"
    },
    {
      "inputs": [],
      "name": "totalSupply",
      "outputs": [
        {
          "internalType": "uint256",
          "name": "",
          "type": "uint256"
        }
      ],
      "stateMutability": "view",
      "type": "function"
    },
    {
      "inputs": [
        {
          "internalType": "address",
          "name": "from",
          "type": "address"
        },
        {
          "internalType": "address",
          "name": "to",
          "type": "address"
        },
        {
          "internalType": "uint256",
          "name": "tokenId",
          "type": "uint256"
        }
      ],
      "name": "transferFrom",
      "outputs": [],
      "stateMutability": "nonpayable",
      "type": "function"
    }
  ],
  "bytecode": "0x60c06040526000805560006008553480156200001a57600080fd5b5060405162003da838038062003da8833981810160405281019062000040919062000243565b81816064612710600081116200008d576040517f08c379a0000000000000000000000000000000000000000000000000000000008152600401620000849062000326565b60405180910390fd5b60008211620000d3576040517f08c379a0000000000000000000000000000000000000000000000000000000008152600401620000ca9062000304565b60405180910390fd5b8360019080519060200190620000eb92919062000121565b5082600290805190602001906200010492919062000121565b508160a08181525050806080818152505050505050505062000567565b8280546200012f90620003ee565b90600052602060002090601f0160209004810192826200015357600085556200019f565b82601f106200016e57805160ff19168380011785556200019f565b828001600101855582156200019f579182015b828111156200019e57825182559160200191906001019062000181565b5b509050620001ae9190620001b2565b5090565b5b80821115620001cd576000816000905550600101620001b3565b5090565b6000620001e8620001e28462000371565b62000348565b9050828152602081018484840111156200020157600080fd5b6200020e848285620003b8565b509392505050565b600082601f8301126200022857600080fd5b81516200023a848260208601620001d1565b91505092915050565b600080604083850312156200025757600080fd5b600083015167ffffffffffffffff8111156200027257600080fd5b620002808582860162000216565b925050602083015167ffffffffffffffff8111156200029e57600080fd5b620002ac8582860162000216565b9150509250929050565b6000620002c5602783620003a7565b9150620002d282620004c9565b604082019050919050565b6000620002ec602e83620003a7565b9150620002f98262000518565b604082019050919050565b600060208201905081810360008301526200031f81620002b6565b9050919050565b600060208201905081810360008301526200034181620002dd565b9050919050565b60006200035462000367565b905062000362828262000424565b919050565b6000604051905090565b600067ffffffffffffffff8211156200038f576200038e62000489565b5b6200039a82620004b8565b9050602081019050919050565b600082825260208201905092915050565b60005b83811015620003d8578082015181840152602081019050620003bb565b83811115620003e8576000848401525b50505050565b600060028204905060018216806200040757607f821691505b602082108114156200041e576200041d6200045a565b5b50919050565b6200042f82620004b8565b810181811067ffffffffffffffff8211171562000451576200045062000489565b5b80604052505050565b7f4e487b7100000000000000000000000000000000000000000000000000000000600052602260045260246000fd5b7f4e487b7100000000000000000000000000000000000000000000000000000000600052604160045260246000fd5b6000601f19601f8301169050919050565b7f455243373231413a206d61782062617463682073697a65206d7573742062652060008201527f6e6f6e7a65726f00000000000000000000000000000000000000000000000000602082015250565b7f455243373231413a20636f6c6c656374696f6e206d757374206861766520612060008201527f6e6f6e7a65726f20737570706c79000000000000000000000000000000000000602082015250565b60805160a05161381062000598600039600081816117340152818161175d0152611a360152600050506138106000f3fe608060405234801561001057600080fd5b50600436106101585760003560e01c806370a08231116100c3578063ad9df9c71161007c578063ad9df9c7146103eb578063b88d4fde14610407578063c87b56dd14610423578063d7224ba014610453578063dc33e68114610471578063e985e9c5146104a157610158565b806370a082311461032b5780638832e6e31461035b57806395d89b4114610377578063a144819414610395578063a22cb465146103b1578063a2309ff8146103cd57610158565b80632f745c59116101155780632f745c591461023157806342842e0e146102615780634f558e791461027d5780634f6ccce7146102ad5780636352211e146102dd5780636c0360eb1461030d57610158565b806301ffc9a71461015d57806306fdde031461018d578063081812fc146101ab578063095ea7b3146101db57806318160ddd146101f757806323b872dd14610215575b600080fd5b61017760048036038101906101729190612652565b6104d1565b6040516101849190612ac1565b60405180910390f35b61019561061b565b6040516101a29190612adc565b60405180910390f35b6101c560048036038101906101c091906126a4565b6106ad565b6040516101d29190612a5a565b60405180910390f35b6101f560048036038101906101f09190612534565b610732565b005b6101ff61084b565b60405161020c9190612d5e565b60405180910390f35b61022f600480360381019061022a919061242e565b610854565b005b61024b60048036038101906102469190612534565b610864565b6040516102589190612d5e565b60405180910390f35b61027b6004803603810190610276919061242e565b610a62565b005b610297600480360381019061029291906126a4565b610a82565b6040516102a49190612ac1565b60405180910390f35b6102c760048036038101906102c291906126a4565b610a94565b6040516102d49190612d5e565b60405180910390f35b6102f760048036038101906102f291906126a4565b610ae7565b6040516103049190612a5a565b60405180910390f35b610315610afd565b6040516103229190612adc565b60405180910390f35b610345600480360381019061034091906123c9565b610b0c565b6040516103529190612d5e565b60405180910390f35b61037560048036038101906103709190612570565b610bf5565b005b61037f610c05565b60405161038c9190612adc565b60405180910390f35b6103af60048036038101906103aa9190612534565b610c97565b005b6103cb60048036038101906103c691906124f8565b610ca5565b005b6103d5610e26565b6040516103e29190612d5e565b60405180910390f35b610405600480360381019061040091906125d7565b610e35565b005b610421600480360381019061041c919061247d565b610e47565b005b61043d600480360381019061043891906126a4565b610ea3565b60405161044a9190612adc565b60405180910390f35b61045b610f4a565b6040516104689190612d5e565b60405180910390f35b61048b600480360381019061048691906123c9565b610f50565b6040516104989190612d5e565b60405180910390f35b6104bb60048036038101906104b691906123f2565b610f62565b6040516104c89190612ac1565b60405180910390f35b60007f80ac58cd000000000000000000000000000000000000000000000000000000007bffffffffffffffffffffffffffffffffffffffffffffffffffffffff1916827bffffffffffffffffffffffffffffffffffffffffffffffffffffffff1916148061059c57507f5b5e139f000000000000000000000000000000000000000000000000000000007bffffffffffffffffffffffffffffffffffffffffffffffffffffffff1916827bffffffffffffffffffffffffffffffffffffffffffffffffffffffff1916145b8061060457507f780e9d63000000000000000000000000000000000000000000000000000000007bffffffffffffffffffffffffffffffffffffffffffffffffffffffff1916827bffffffffffffffffffffffffffffffffffffffffffffffffffffffff1916145b80610614575061061382610ff6565b5b9050919050565b60606001805461062a90613043565b80601f016020809104026020016040519081016040528092919081815260200182805461065690613043565b80156106a35780601f10610678576101008083540402835291602001916106a3565b820191906000526020600020905b81548152906001019060200180831161068657829003601f168201915b5050505050905090565b60006106b882611060565b6106f7576040517f08c379a00000000000000000000000000000000000000000000000000000000081526004016106ee90612d1e565b60405180910390fd5b6005600083815260200190815260200160002060009054906101000a900473ffffffffffffffffffffffffffffffffffffffff169050919050565b600061073d82610ae7565b90508073ffffffffffffffffffffffffffffffffffffffff168373ffffffffffffffffffffffffffffffffffffffff1614156107ae576040517f08c379a00000000000000000000000000000000000000000000000000000000081526004016107a590612c5e565b60405180910390fd5b8073ffffffffffffffffffffffffffffffffffffffff166107cd61106d565b73ffffffffffffffffffffffffffffffffffffffff1614806107fc57506107fb816107f661106d565b610f62565b5b61083b576040517f08c379a000000000000000000000000000000000000000000000000000000000815260040161083290612b9e565b60405180910390fd5b610846838383611075565b505050565b60008054905090565b61085f838383611127565b505050565b600061086f83610b0c565b82106108b0576040517f08c379a00000000000000000000000000000000000000000000000000000000081526004016108a790612afe565b60405180910390fd5b60006108ba61084b565b905060008060005b83811015610a20576000600360008381526020019081526020016000206040518060400160405290816000820160009054906101000a900473ffffffffffffffffffffffffffffffffffffffff1673ffffffffffffffffffffffffffffffffffffffff1673ffffffffffffffffffffffffffffffffffffffff1681526020016000820160149054906101000a900467ffffffffffffffff1667ffffffffffffffff1667ffffffffffffffff16815250509050600073ffffffffffffffffffffffffffffffffffffffff16816000015173ffffffffffffffffffffffffffffffffffffffff16146109b457806000015192505b8773ffffffffffffffffffffffffffffffffffffffff168373ffffffffffffffffffffffffffffffffffffffff161415610a0c57868414156109fd578195505050505050610a5c565b8380610a08906130a6565b9450505b508080610a18906130a6565b9150506108c2565b506040517f08c379a0000000000000000000000000000000000000000000000000000000008152600401610a5390612cde565b60405180910390fd5b92915050565b610a7d83838360405180602001604052806000815250610e47565b505050565b6000610a8d82611060565b9050919050565b6000610a9e61084b565b8210610adf576040517f08c379a0000000000000000000000000000000000000000000000000000000008152600401610ad690612b3e565b60405180910390fd5b819050919050565b6000610af2826116e0565b600001519050919050565b6060610b076118e3565b905090565b60008073ffffffffffffffffffffffffffffffffffffffff168273ffffffffffffffffffffffffffffffffffffffff161415610b7d576040517f08c379a0000000000000000000000000000000000000000000000000000000008152600401610b7490612bbe565b60405180910390fd5b600460008373ffffffffffffffffffffffffffffffffffffffff1673ffffffffffffffffffffffffffffffffffffffff16815260200190815260200160002060000160009054906101000a90046fffffffffffffffffffffffffffffffff166fffffffffffffffffffffffffffffffff169050919050565b610c00838383611975565b505050565b606060028054610c1490613043565b80601f0160208091040260200160405190810160405280929190818152602001828054610c4090613043565b8015610c8d5780601f10610c6257610100808354040283529160200191610c8d565b820191906000526020600020905b815481529060010190602001808311610c7057829003601f168201915b5050505050905090565b610ca18282611e54565b5050565b610cad61106d565b73ffffffffffffffffffffffffffffffffffffffff168273ffffffffffffffffffffffffffffffffffffffff161415610d1b576040517f08c379a0000000000000000000000000000000000000000000000000000000008152600401610d1290612c1e565b60405180910390fd5b8060066000610d2861106d565b73ffffffffffffffffffffffffffffffffffffffff1673ffffffffffffffffffffffffffffffffffffffff16815260200190815260200160002060008473ffffffffffffffffffffffffffffffffffffffff1673ffffffffffffffffffffffffffffffffffffffff16815260200190815260200160002060006101000a81548160ff0219169083151502179055508173ffffffffffffffffffffffffffffffffffffffff16610dd561106d565b73ffffffffffffffffffffffffffffffffffffffff167f17307eab39ab6107e8899845ad3d59bd9653f200f220920489ca2b5937696c3183604051610e1a9190612ac1565b60405180910390a35050565b6000610e3061084b565b905090565b610e4184848484610e35565b50505050565b610e52848484611127565b610e5e84848484611e72565b610e9d576040517f08c379a0000000000000000000000000000000000000000000000000000000008152600401610e9490612c7e565b60405180910390fd5b50505050565b6060610eae82611060565b610eed576040517f08c379a0000000000000000000000000000000000000000000000000000000008152600401610ee490612bfe565b60405180910390fd5b6000610ef76118e3565b90506000815111610f175760405180602001604052806000815250610f42565b80610f2184612009565b604051602001610f32929190612a36565b6040516020818303038152906040525b915050919050565b60085481565b6000610f5b826121b6565b9050919050565b6000600660008473ffffffffffffffffffffffffffffffffffffffff1673ffffffffffffffffffffffffffffffffffffffff16815260200190815260200160002060008373ffffffffffffffffffffffffffffffffffffffff1673ffffffffffffffffffffffffffffffffffffffff16815260200190815260200160002060009054906101000a900460ff16905092915050565b60007f01ffc9a7000000000000000000000000000000000000000000000000000000007bffffffffffffffffffffffffffffffffffffffffffffffffffffffff1916827bffffffffffffffffffffffffffffffffffffffffffffffffffffffff1916149050919050565b6000805482109050919050565b600033905090565b826005600084815260200190815260200160002060006101000a81548173ffffffffffffffffffffffffffffffffffffffff021916908373ffffffffffffffffffffffffffffffffffffffff160217905550818373ffffffffffffffffffffffffffffffffffffffff168273ffffffffffffffffffffffffffffffffffffffff167f8c5be1e5ebec7d5bd14f71427d1e84f3dd0314c0f7b2291e5b200ac8c7c3b92560405160405180910390a4505050565b6000611132826116e0565b90506000816000015173ffffffffffffffffffffffffffffffffffffffff1661115961106d565b73ffffffffffffffffffffffffffffffffffffffff1614806111b5575061117e61106d565b73ffffffffffffffffffffffffffffffffffffffff1661119d846106ad565b73ffffffffffffffffffffffffffffffffffffffff16145b806111d157506111d082600001516111cb61106d565b610f62565b5b905080611213576040517f08c379a000000000000000000000000000000000000000000000000000000000815260040161120a90612c3e565b60405180910390fd5b8473ffffffffffffffffffffffffffffffffffffffff16826000015173ffffffffffffffffffffffffffffffffffffffff1614611285576040517f08c379a000000000000000000000000000000000000000000000000000000000815260040161127c90612bde565b60405180910390fd5b600073ffffffffffffffffffffffffffffffffffffffff168473ffffffffffffffffffffffffffffffffffffffff1614156112f5576040517f08c379a00000000000000000000000000000000000000000000000000000000081526004016112ec90612b5e565b60405180910390fd5b611302858585600161229f565b6113126000848460000151611075565b6001600460008773ffffffffffffffffffffffffffffffffffffffff1673ffffffffffffffffffffffffffffffffffffffff16815260200190815260200160002060000160008282829054906101000a90046fffffffffffffffffffffffffffffffff166113809190612edf565b92506101000a8154816fffffffffffffffffffffffffffffffff02191690836fffffffffffffffffffffffffffffffff1602179055506001600460008673ffffffffffffffffffffffffffffffffffffffff1673ffffffffffffffffffffffffffffffffffffffff16815260200190815260200160002060000160008282829054906101000a90046fffffffffffffffffffffffffffffffff166114249190612e12565b92506101000a8154816fffffffffffffffffffffffffffffffff02191690836fffffffffffffffffffffffffffffffff16021790555060405180604001604052808573ffffffffffffffffffffffffffffffffffffffff1681526020014267ffffffffffffffff168152506003600085815260200190815260200160002060008201518160000160006101000a81548173ffffffffffffffffffffffffffffffffffffffff021916908373ffffffffffffffffffffffffffffffffffffffff16021790555060208201518160000160146101000a81548167ffffffffffffffff021916908367ffffffffffffffff160217905550905050600060018461152a9190612e58565b9050600073ffffffffffffffffffffffffffffffffffffffff166003600083815260200190815260200160002060000160009054906101000a900473ffffffffffffffffffffffffffffffffffffffff1673ffffffffffffffffffffffffffffffffffffffff161415611670576115a081611060565b1561166f576040518060400160405280846000015173ffffffffffffffffffffffffffffffffffffffff168152602001846020015167ffffffffffffffff168152506003600083815260200190815260200160002060008201518160000160006101000a81548173ffffffffffffffffffffffffffffffffffffffff021916908373ffffffffffffffffffffffffffffffffffffffff16021790555060208201518160000160146101000a81548167ffffffffffffffff021916908367ffffffffffffffff1602179055509050505b5b838573ffffffffffffffffffffffffffffffffffffffff168773ffffffffffffffffffffffffffffffffffffffff167fddf252ad1be2c89b69c2b068fc378daa952ba7f163c4a11628f55a4df523b3ef60405160405180910390a46116d886868660016122a5565b505050505050565b6116e86122be565b6116f182611060565b611730576040517f08c379a000000000000000000000000000000000000000000000000000000000815260040161172790612b1e565b60405180910390fd5b60007f000000000000000000000000000000000000000000000000000000000000000083106117945760017f0000000000000000000000000000000000000000000000000000000000000000846117879190612f13565b6117919190612e58565b90505b60008390505b8181106118a2576000600360008381526020019081526020016000206040518060400160405290816000820160009054906101000a900473ffffffffffffffffffffffffffffffffffffffff1673ffffffffffffffffffffffffffffffffffffffff1673ffffffffffffffffffffffffffffffffffffffff1681526020016000820160149054906101000a900467ffffffffffffffff1667ffffffffffffffff1667ffffffffffffffff16815250509050600073ffffffffffffffffffffffffffffffffffffffff16816000015173ffffffffffffffffffffffffffffffffffffffff161461188e578093505050506118de565b50808061189a90613019565b91505061179a565b506040517f08c379a00000000000000000000000000000000000000000000000000000000081526004016118d590612cfe565b60405180910390fd5b919050565b6060600780546118f290613043565b80601f016020809104026020016040519081016040528092919081815260200182805461191e90613043565b801561196b5780601f106119405761010080835404028352916020019161196b565b820191906000526020600020905b81548152906001019060200180831161194e57829003601f168201915b5050505050905090565b600080549050600073ffffffffffffffffffffffffffffffffffffffff168473ffffffffffffffffffffffffffffffffffffffff1614156119eb576040517f08c379a00000000000000000000000000000000000000000000000000000000081526004016119e290612cbe565b60405180910390fd5b6119f481611060565b15611a34576040517f08c379a0000000000000000000000000000000000000000000000000000000008152600401611a2b90612c9e565b60405180910390fd5b7f0000000000000000000000000000000000000000000000000000000000000000831115611a97576040517f08c379a0000000000000000000000000000000000000000000000000000000008152600401611a8e90612d3e565b60405180910390fd5b611aa4600085838661229f565b6000600460008673ffffffffffffffffffffffffffffffffffffffff1673ffffffffffffffffffffffffffffffffffffffff1681526020019081526020016000206040518060400160405290816000820160009054906101000a90046fffffffffffffffffffffffffffffffff166fffffffffffffffffffffffffffffffff166fffffffffffffffffffffffffffffffff1681526020016000820160109054906101000a90046fffffffffffffffffffffffffffffffff166fffffffffffffffffffffffffffffffff166fffffffffffffffffffffffffffffffff168152505090506040518060400160405280858360000151611ba19190612e12565b6fffffffffffffffffffffffffffffffff168152602001858360200151611bc89190612e12565b6fffffffffffffffffffffffffffffffff16815250600460008773ffffffffffffffffffffffffffffffffffffffff1673ffffffffffffffffffffffffffffffffffffffff16815260200190815260200160002060008201518160000160006101000a8154816fffffffffffffffffffffffffffffffff02191690836fffffffffffffffffffffffffffffffff16021790555060208201518160000160106101000a8154816fffffffffffffffffffffffffffffffff02191690836fffffffffffffffffffffffffffffffff16021790555090505060405180604001604052808673ffffffffffffffffffffffffffffffffffffffff1681526020014267ffffffffffffffff168152506003600084815260200190815260200160002060008201518160000160006101000a81548173ffffffffffffffffffffffffffffffffffffffff021916908373ffffffffffffffffffffffffffffffffffffffff16021790555060208201518160000160146101000a81548167ffffffffffffffff021916908367ffffffffffffffff160217905550905050600082905060005b85811015611e3757818773ffffffffffffffffffffffffffffffffffffffff16600073ffffffffffffffffffffffffffffffffffffffff167fddf252ad1be2c89b69c2b068fc378daa952ba7f163c4a11628f55a4df523b3ef60405160405180910390a4611dd76000888488611e72565b611e16576040517f08c379a0000000000000000000000000000000000000000000000000000000008152600401611e0d90612c7e565b60405180910390fd5b8180611e21906130a6565b9250508080611e2f906130a6565b915050611d66565b5080600081905550611e4c60008785886122a5565b505050505050565b611e6e828260405180602001604052806000815250611975565b5050565b6000611e938473ffffffffffffffffffffffffffffffffffffffff166122ab565b15611ffc578373ffffffffffffffffffffffffffffffffffffffff1663150b7a02611ebc61106d565b8786866040518563ffffffff1660e01b8152600401611ede9493929190612a75565b602060405180830381600087803b158015611ef857600080fd5b505af1925050508015611f2957506040513d601f19601f82011682018060405250810190611f26919061267b565b60015b611fac573d8060008114611f59576040519150601f19603f3d011682016040523d82523d6000602084013e611f5e565b606091505b50600081511415611fa4576040517f08c379a0000000000000000000000000000000000000000000000000000000008152600401611f9b90612c7e565b60405180910390fd5b805181602001fd5b63150b7a0260e01b7bffffffffffffffffffffffffffffffffffffffffffffffffffffffff1916817bffffffffffffffffffffffffffffffffffffffffffffffffffffffff191614915050612001565b600190505b949350505050565b60606000821415612051576040518060400160405280600181526020017f300000000000000000000000000000000000000000000000000000000000000081525090506121b1565b600082905060005b6000821461208357808061206c906130a6565b915050600a8261207c9190612eae565b9150612059565b60008167ffffffffffffffff8111156120c5577f4e487b7100000000000000000000000000000000000000000000000000000000600052604160045260246000fd5b6040519080825280601f01601f1916602001820160405280156120f75781602001600182028036833780820191505090505b5090505b600085146121aa576001826121109190612f13565b9150600a8561211f91906130ef565b603061212b9190612e58565b60f81b818381518110612167577f4e487b7100000000000000000000000000000000000000000000000000000000600052603260045260246000fd5b60200101907effffffffffffffffffffffffffffffffffffffffffffffffffffffffffffff1916908160001a905350600a856121a39190612eae565b94506120fb565b8093505050505b919050565b60008073ffffffffffffffffffffffffffffffffffffffff168273ffffffffffffffffffffffffffffffffffffffff161415612227576040517f08c379a000000000000000000000000000000000000000000000000000000000815260040161221e90612b7e565b60405180910390fd5b600460008373ffffffffffffffffffffffffffffffffffffffff1673ffffffffffffffffffffffffffffffffffffffff16815260200190815260200160002060000160109054906101000a90046fffffffffffffffffffffffffffffffff166fffffffffffffffffffffffffffffffff169050919050565b50505050565b50505050565b600080823b905060008111915050919050565b6040518060400160405280600073ffffffffffffffffffffffffffffffffffffffff168152602001600067ffffffffffffffff1681525090565b600061230b61230684612d9e565b612d79565b90508281526020810184848401111561232357600080fd5b61232e848285612fd7565b509392505050565b6000813590506123458161377e565b92915050565b60008135905061235a81613795565b92915050565b60008135905061236f816137ac565b92915050565b600081519050612384816137ac565b92915050565b600082601f83011261239b57600080fd5b81356123ab8482602086016122f8565b91505092915050565b6000813590506123c3816137c3565b92915050565b6000602082840312156123db57600080fd5b60006123e984828501612336565b91505092915050565b6000806040838503121561240557600080fd5b600061241385828601612336565b925050602061242485828601612336565b9150509250929050565b60008060006060848603121561244357600080fd5b600061245186828701612336565b935050602061246286828701612336565b9250506040612473868287016123b4565b9150509250925092565b6000806000806080858703121561249357600080fd5b60006124a187828801612336565b94505060206124b287828801612336565b93505060406124c3878288016123b4565b925050606085013567ffffffffffffffff8111156124e057600080fd5b6124ec8782880161238a565b91505092959194509250565b6000806040838503121561250b57600080fd5b600061251985828601612336565b925050602061252a8582860161234b565b9150509250929050565b6000806040838503121561254757600080fd5b600061255585828601612336565b9250506020612566858286016123b4565b9150509250929050565b60008060006060848603121561258557600080fd5b600061259386828701612336565b93505060206125a4868287016123b4565b925050604084013567ffffffffffffffff8111156125c157600080fd5b6125cd8682870161238a565b9150509250925092565b600080600080608085870312156125ed57600080fd5b60006125fb87828801612336565b945050602061260c878288016123b4565b935050604085013567ffffffffffffffff81111561262957600080fd5b6126358782880161238a565b92505060606126468782880161234b565b91505092959194509250565b60006020828403121561266457600080fd5b600061267284828501612360565b91505092915050565b60006020828403121561268d57600080fd5b600061269b84828501612375565b91505092915050565b6000602082840312156126b657600080fd5b60006126c4848285016123b4565b91505092915050565b6126d681612f47565b82525050565b6126e581612f59565b82525050565b60006126f682612dcf565b6127008185612de5565b9350612710818560208601612fe6565b612719816131dc565b840191505092915050565b600061272f82612dda565b6127398185612df6565b9350612749818560208601612fe6565b612752816131dc565b840191505092915050565b600061276882612dda565b6127728185612e07565b9350612782818560208601612fe6565b80840191505092915050565b600061279b602283612df6565b91506127a6826131ed565b604082019050919050565b60006127be602a83612df6565b91506127c98261323c565b604082019050919050565b60006127e1602383612df6565b91506127ec8261328b565b604082019050919050565b6000612804602583612df6565b915061280f826132da565b604082019050919050565b6000612827603183612df6565b915061283282613329565b604082019050919050565b600061284a603983612df6565b915061285582613378565b604082019050919050565b600061286d602b83612df6565b9150612878826133c7565b604082019050919050565b6000612890602683612df6565b915061289b82613416565b604082019050919050565b60006128b3602f83612df6565b91506128be82613465565b604082019050919050565b60006128d6601a83612df6565b91506128e1826134b4565b602082019050919050565b60006128f9603283612df6565b9150612904826134dd565b604082019050919050565b600061291c602283612df6565b91506129278261352c565b604082019050919050565b600061293f603383612df6565b915061294a8261357b565b604082019050919050565b6000612962601d83612df6565b915061296d826135ca565b602082019050919050565b6000612985602183612df6565b9150612990826135f3565b604082019050919050565b60006129a8602e83612df6565b91506129b382613642565b604082019050919050565b60006129cb602f83612df6565b91506129d682613691565b604082019050919050565b60006129ee602d83612df6565b91506129f9826136e0565b604082019050919050565b6000612a11602283612df6565b9150612a1c8261372f565b604082019050919050565b612a3081612fcd565b82525050565b6000612a42828561275d565b9150612a4e828461275d565b91508190509392505050565b6000602082019050612a6f60008301846126cd565b92915050565b6000608082019050612a8a60008301876126cd565b612a9760208301866126cd565b612aa46040830185612a27565b8181036060830152612ab681846126eb565b905095945050505050565b6000602082019050612ad660008301846126dc565b92915050565b60006020820190508181036000830152612af68184612724565b905092915050565b60006020820190508181036000830152612b178161278e565b9050919050565b60006020820190508181036000830152612b37816127b1565b9050919050565b60006020820190508181036000830152612b57816127d4565b9050919050565b60006020820190508181036000830152612b77816127f7565b9050919050565b60006020820190508181036000830152612b978161281a565b9050919050565b60006020820190508181036000830152612bb78161283d565b9050919050565b60006020820190508181036000830152612bd781612860565b9050919050565b60006020820190508181036000830152612bf781612883565b9050919050565b60006020820190508181036000830152612c17816128a6565b9050919050565b60006020820190508181036000830152612c37816128c9565b9050919050565b60006020820190508181036000830152612c57816128ec565b9050919050565b60006020820190508181036000830152612c778161290f565b9050919050565b60006020820190508181036000830152612c9781612932565b9050919050565b60006020820190508181036000830152612cb781612955565b9050919050565b60006020820190508181036000830152612cd781612978565b9050919050565b60006020820190508181036000830152612cf78161299b565b9050919050565b60006020820190508181036000830152612d17816129be565b9050919050565b60006020820190508181036000830152612d37816129e1565b9050919050565b60006020820190508181036000830152612d5781612a04565b9050919050565b6000602082019050612d736000830184612a27565b92915050565b6000612d83612d94565b9050612d8f8282613075565b919050565b6000604051905090565b600067ffffffffffffffff821115612db957612db86131ad565b5b612dc2826131dc565b9050602081019050919050565b600081519050919050565b600081519050919050565b600082825260208201905092915050565b600082825260208201905092915050565b600081905092915050565b6000612e1d82612f91565b9150612e2883612f91565b9250826fffffffffffffffffffffffffffffffff03821115612e4d57612e4c613120565b5b828201905092915050565b6000612e6382612fcd565b9150612e6e83612fcd565b9250827fffffffffffffffffffffffffffffffffffffffffffffffffffffffffffffffff03821115612ea357612ea2613120565b5b828201905092915050565b6000612eb982612fcd565b9150612ec483612fcd565b925082612ed457612ed361314f565b5b828204905092915050565b6000612eea82612f91565b9150612ef583612f91565b925082821015612f0857612f07613120565b5b828203905092915050565b6000612f1e82612fcd565b9150612f2983612fcd565b925082821015612f3c57612f3b613120565b5b828203905092915050565b6000612f5282612fad565b9050919050565b60008115159050919050565b60007fffffffff0000000000000000000000000000000000000000000000000000000082169050919050565b60006fffffffffffffffffffffffffffffffff82169050919050565b600073ffffffffffffffffffffffffffffffffffffffff82169050919050565b6000819050919050565b82818337600083830152505050565b60005b83811015613004578082015181840152602081019050612fe9565b83811115613013576000848401525b50505050565b600061302482612fcd565b9150600082141561303857613037613120565b5b600182039050919050565b6000600282049050600182168061305b57607f821691505b6020821081141561306f5761306e61317e565b5b50919050565b61307e826131dc565b810181811067ffffffffffffffff8211171561309d5761309c6131ad565b5b80604052505050565b60006130b182612fcd565b91507fffffffffffffffffffffffffffffffffffffffffffffffffffffffffffffffff8214156130e4576130e3613120565b5b600182019050919050565b60006130fa82612fcd565b915061310583612fcd565b9250826131155761311461314f565b5b828206905092915050565b7f4e487b7100000000000000000000000000000000000000000000000000000000600052601160045260246000fd5b7f4e487b7100000000000000000000000000000000000000000000000000000000600052601260045260246000fd5b7f4e487b7100000000000000000000000000000000000000000000000000000000600052602260045260246000fd5b7f4e487b7100000000000000000000000000000000000000000000000000000000600052604160045260246000fd5b6000601f19601f8301169050919050565b7f455243373231413a206f776e657220696e646578206f7574206f6620626f756e60008201527f6473000000000000000000000000000000000000000000000000000000000000602082015250565b7f455243373231413a206f776e657220717565727920666f72206e6f6e6578697360008201527f74656e7420746f6b656e00000000000000000000000000000000000000000000602082015250565b7f455243373231413a20676c6f62616c20696e646578206f7574206f6620626f7560008201527f6e64730000000000000000000000000000000000000000000000000000000000602082015250565b7f455243373231413a207472616e7366657220746f20746865207a65726f20616460008201527f6472657373000000000000000000000000000000000000000000000000000000602082015250565b7f455243373231413a206e756d626572206d696e74656420717565727920666f7260008201527f20746865207a65726f2061646472657373000000000000000000000000000000602082015250565b7f455243373231413a20617070726f76652063616c6c6572206973206e6f74206f60008201527f776e6572206e6f7220617070726f76656420666f7220616c6c00000000000000602082015250565b7f455243373231413a2062616c616e636520717565727920666f7220746865207a60008201527f65726f2061646472657373000000000000000000000000000000000000000000602082015250565b7f455243373231413a207472616e736665722066726f6d20696e636f727265637460008201527f206f776e65720000000000000000000000000000000000000000000000000000602082015250565b7f4552433732314d657461646174613a2055524920717565727920666f72206e6f60008201527f6e6578697374656e7420746f6b656e0000000000000000000000000000000000602082015250565b7f455243373231413a20617070726f766520746f2063616c6c6572000000000000600082015250565b7f455243373231413a207472616e736665722063616c6c6572206973206e6f742060008201527f6f776e6572206e6f7220617070726f7665640000000000000000000000000000602082015250565b7f455243373231413a20617070726f76616c20746f2063757272656e74206f776e60008201527f6572000000000000000000000000000000000000000000000000000000000000602082015250565b7f455243373231413a207472616e7366657220746f206e6f6e204552433732315260008201527f6563656976657220696d706c656d656e74657200000000000000000000000000602082015250565b7f455243373231413a20746f6b656e20616c7265616479206d696e746564000000600082015250565b7f455243373231413a206d696e7420746f20746865207a65726f2061646472657360008201527f7300000000000000000000000000000000000000000000000000000000000000602082015250565b7f455243373231413a20756e61626c6520746f2067657420746f6b656e206f662060008201527f6f776e657220627920696e646578000000000000000000000000000000000000602082015250565b7f455243373231413a20756e61626c6520746f2064657465726d696e652074686560008201527f206f776e6572206f6620746f6b656e0000000000000000000000000000000000602082015250565b7f455243373231413a20617070726f76656420717565727920666f72206e6f6e6560008201527f78697374656e7420746f6b656e00000000000000000000000000000000000000602082015250565b7f455243373231413a207175616e7469747920746f206d696e7420746f6f20686960008201527f6768000000000000000000000000000000000000000000000000000000000000602082015250565b61378781612f47565b811461379257600080fd5b50565b61379e81612f59565b81146137a957600080fd5b50565b6137b581612f65565b81146137c057600080fd5b50565b6137cc81612fcd565b81146137d757600080fd5b5056fea26469706673582212200b19d733ff4c2e07b965dc4fa73e995568418fab5930e7aad51567bc4d7a255964736f6c63430008040033",
  "linkReferences": {},
  "deployedLinkReferences": {}
}