{
  "_format": "hh-sol-artifact-1",
  "contractName": "NFT",
  "sourceName": "contracts/NFT.sol",
  "abi": [
    {
      "inputs": [
        {
          "internalType": "string",
          "name": "name_",
          "type": "string"
        },
        {
          "internalType": "string",
          "name": "symbol_",
          "type": "string"
        }
      ],
      "stateMutability": "nonpayable",
      "type": "constructor"
    },
    {
      "anonymous": false,
      "inputs": [
        {
          "indexed": true,
          "internalType": "address",
          "name": "owner",
          "type": "address"
        },
        {
          "indexed": true,
          "internalType": "address",
          "name": "approved",
          "type": "address"
        },
        {
          "indexed": true,
          "internalType": "uint256",
          "name": "tokenId",
          "type": "uint256"
        }
      ],
      "name": "Approval",
      "type": "event"
    },
    {
      "anonymous": false,
      "inputs": [
        {
          "indexed": true,
          "internalType": "address",
          "name": "owner",
          "type": "address"
        },
        {
          "indexed": true,
          "internalType": "address",
          "name": "operator",
          "type": "address"
        },
        {
          "indexed": false,
          "internalType": "bool",
          "name": "approved",
          "type": "bool"
        }
      ],
      "name": "ApprovalForAll",
      "type": "event"
    },
    {
      "anonymous": false,
      "inputs": [
        {
          "indexed": true,
          "internalType": "address",
          "name": "from",
          "type": "address"
        },
        {
          "indexed": true,
          "internalType": "address",
          "name": "to",
          "type": "address"
        },
        {
          "indexed": true,
          "internalType": "uint256",
          "name": "tokenId",
          "type": "uint256"
        }
      ],
      "name": "Transfer",
      "type": "event"
    },
    {
      "inputs": [
        {
          "internalType": "address",
          "name": "to",
          "type": "address"
        },
        {
          "internalType": "uint256",
          "name": "tokenId",
          "type": "uint256"
        }
      ],
      "name": "approve",
      "outputs": [],
      "stateMutability": "nonpayable",
      "type": "function"
    },
    {
      "inputs": [
        {
          "internalType": "address",
          "name": "owner",
          "type": "address"
        }
      ],
      "name": "balanceOf",
      "outputs": [
        {
          "internalType": "uint256",
          "name": "",
          "type": "uint256"
        }
      ],
      "stateMutability": "view",
      "type": "function"
    },
    {
      "inputs": [],
      "name": "baseURI",
      "outputs": [
        {
          "internalType": "string",
          "name": "",
          "type": "string"
        }
      ],
      "stateMutability": "view",
      "type": "function"
    },
    {
      "inputs": [
        {
          "internalType": "uint256",
          "name": "tokenId",
          "type": "uint256"
        }
      ],
      "name": "getApproved",
      "outputs": [
        {
          "internalType": "address",
          "name": "",
          "type": "address"
        }
      ],
      "stateMutability": "view",
      "type": "function"
    },
    {
      "inputs": [
        {
          "internalType": "address",
          "name": "owner",
          "type": "address"
        },
        {
          "internalType": "address",
          "name": "operator",
          "type": "address"
        }
      ],
      "name": "isApprovedForAll",
      "outputs": [
        {
          "internalType": "bool",
          "name": "",
          "type": "bool"
        }
      ],
      "stateMutability": "view",
      "type": "function"
    },
    {
      "inputs": [
        {
          "internalType": "address",
          "name": "to",
          "type": "address"
        },
        {
          "internalType": "uint256",
          "name": "quantity",
          "type": "uint256"
        },
        {
          "internalType": "bytes",
          "name": "_data",
          "type": "bytes"
        },
        {
          "internalType": "bool",
          "name": "safe",
          "type": "bool"
        }
      ],
      "name": "mint",
      "outputs": [],
      "stateMutability": "nonpayable",
      "type": "function"
    },
    {
      "inputs": [],
      "name": "name",
      "outputs": [
        {
          "internalType": "string",
          "name": "",
          "type": "string"
        }
      ],
      "stateMutability": "view",
      "type": "function"
    },
    {
      "inputs": [],
      "name": "nextOwnerToExplicitlySet",
      "outputs": [
        {
          "internalType": "uint256",
          "name": "",
          "type": "uint256"
        }
      ],
      "stateMutability": "view",
      "type": "function"
    },
    {
      "inputs": [
        {
          "internalType": "address",
          "name": "owner",
          "type": "address"
        }
      ],
      "name": "numberMinted",
      "outputs": [
        {
          "internalType": "uint256",
          "name": "",
          "type": "uint256"
        }
      ],
      "stateMutability": "view",
      "type": "function"
    },
    {
      "inputs": [
        {
          "internalType": "uint256",
          "name": "tokenId",
          "type": "uint256"
        }
      ],
      "name": "ownerOf",
      "outputs": [
        {
          "internalType": "address",
          "name": "",
          "type": "address"
        }
      ],
      "stateMutability": "view",
      "type": "function"
    },
    {
      "inputs": [
        {
          "internalType": "address",
          "name": "to",
          "type": "address"
        },
        {
          "internalType": "uint256",
          "name": "quantity",
          "type": "uint256"
        },
        {
          "internalType": "bytes",
          "name": "_data",
          "type": "bytes"
        }
      ],
      "name": "safeMint",
      "outputs": [],
      "stateMutability": "nonpayable",
      "type": "function"
    },
    {
      "inputs": [
        {
          "internalType": "address",
          "name": "to",
          "type": "address"
        },
        {
          "internalType": "uint256",
          "name": "quantity",
          "type": "uint256"
        }
      ],
      "name": "safeMint",
      "outputs": [],
      "stateMutability": "nonpayable",
      "type": "function"
    },
    {
      "inputs": [
        {
          "internalType": "address",
          "name": "from",
          "type": "address"
        },
        {
          "internalType": "address",
          "name": "to",
          "type": "address"
        },
        {
          "internalType": "uint256",
          "name": "tokenId",
          "type": "uint256"
        }
      ],
      "name": "safeTransferFrom",
      "outputs": [],
      "stateMutability": "nonpayable",
      "type": "function"
    },
    {
      "inputs": [
        {
          "internalType": "address",
          "name": "from",
          "type": "address"
        },
        {
          "internalType": "address",
          "name": "to",
          "type": "address"
        },
        {
          "internalType": "uint256",
          "name": "tokenId",
          "type": "uint256"
        },
        {
          "internalType": "bytes",
          "name": "_data",
          "type": "bytes"
        }
      ],
      "name": "safeTransferFrom",
      "outputs": [],
      "stateMutability": "nonpayable",
      "type": "function"
    },
    {
      "inputs": [
        {
          "internalType": "address",
          "name": "operator",
          "type": "address"
        },
        {
          "internalType": "bool",
          "name": "approved",
          "type": "bool"
        }
      ],
      "name": "setApprovalForAll",
      "outputs": [],
      "stateMutability": "nonpayable",
      "type": "function"
    },
    {
      "inputs": [
        {
          "internalType": "bytes4",
          "name": "interfaceId",
          "type": "bytes4"
        }
      ],
      "name": "supportsInterface",
      "outputs": [
        {
          "internalType": "bool",
          "name": "",
          "type": "bool"
        }
      ],
      "stateMutability": "view",
      "type": "function"
    },
    {
      "inputs": [],
      "name": "symbol",
      "outputs": [
        {
          "internalType": "string",
          "name": "",
          "type": "string"
        }
      ],
      "stateMutability": "view",
      "type": "function"
    },
    {
      "inputs": [
        {
          "internalType": "uint256",
          "name": "index",
          "type": "uint256"
        }
      ],
      "name": "tokenByIndex",
      "outputs": [
        {
          "internalType": "uint256",
          "name": "",
          "type": "uint256"
        }
      ],
      "stateMutability": "view",
      "type": "function"
    },
    {
      "inputs": [
        {
          "internalType": "address",
          "name": "owner",
          "type": "address"
        },
        {
          "internalType": "uint256",
          "name": "index",
          "type": "uint256"
        }
      ],
      "name": "tokenOfOwnerByIndex",
      "outputs": [
        {
          "internalType": "uint256",
          "name": "",
          "type": "uint256"
        }
      ],
      "stateMutability": "view",
      "type": "function"
    },
    {
      "inputs": [
        {
          "internalType": "uint256",
          "name": "tokenId",
          "type": "uint256"
        }
      ],
      "name": "tokenURI",
      "outputs": [
        {
          "internalType": "string",
          "name": "",
          "type": "string"
        }
      ],
      "stateMutability": "view",
      "type": "function"
    },
    {
      "inputs": [],
      "name": "totalSupply",
      "outputs": [
        {
          "internalType": "uint256",
          "name": "",
          "type": "uint256"
        }
      ],
      "stateMutability": "view",
      "type": "function"
    },
    {
      "inputs": [
        {
          "internalType": "address",
          "name": "from",
          "type": "address"
        },
        {
          "internalType": "address",
          "name": "to",
          "type": "address"
        },
        {
          "internalType": "uint256",
          "name": "tokenId",
          "type": "uint256"
        }
      ],
      "name": "transferFrom",
      "outputs": [],
      "stateMutability": "nonpayable",
      "type": "function"
    }
  ],
  "bytecode": "0x60c06040526000805560006008553480156200001a57600080fd5b5060405162003d2338038062003d23833981810160405281019062000040919062000243565b81816064612710600081116200008d576040517f08c379a0000000000000000000000000000000000000000000000000000000008152600401620000849062000326565b60405180910390fd5b60008211620000d3576040517f08c379a0000000000000000000000000000000000000000000000000000000008152600401620000ca9062000304565b60405180910390fd5b8360019080519060200190620000eb92919062000121565b5082600290805190602001906200010492919062000121565b508160a08181525050806080818152505050505050505062000567565b8280546200012f90620003ee565b90600052602060002090601f0160209004810192826200015357600085556200019f565b82601f106200016e57805160ff19168380011785556200019f565b828001600101855582156200019f579182015b828111156200019e57825182559160200191906001019062000181565b5b509050620001ae9190620001b2565b5090565b5b80821115620001cd576000816000905550600101620001b3565b5090565b6000620001e8620001e28462000371565b62000348565b9050828152602081018484840111156200020157600080fd5b6200020e848285620003b8565b509392505050565b600082601f8301126200022857600080fd5b81516200023a848260208601620001d1565b91505092915050565b600080604083850312156200025757600080fd5b600083015167ffffffffffffffff8111156200027257600080fd5b620002808582860162000216565b925050602083015167ffffffffffffffff8111156200029e57600080fd5b620002ac8582860162000216565b9150509250929050565b6000620002c5602783620003a7565b9150620002d282620004c9565b604082019050919050565b6000620002ec602e83620003a7565b9150620002f98262000518565b604082019050919050565b600060208201905081810360008301526200031f81620002b6565b9050919050565b600060208201905081810360008301526200034181620002dd565b9050919050565b60006200035462000367565b905062000362828262000424565b919050565b6000604051905090565b600067ffffffffffffffff8211156200038f576200038e62000489565b5b6200039a82620004b8565b9050602081019050919050565b600082825260208201905092915050565b60005b83811015620003d8578082015181840152602081019050620003bb565b83811115620003e8576000848401525b50505050565b600060028204905060018216806200040757607f821691505b602082108114156200041e576200041d6200045a565b5b50919050565b6200042f82620004b8565b810181811067ffffffffffffffff8211171562000451576200045062000489565b5b80604052505050565b7f4e487b7100000000000000000000000000000000000000000000000000000000600052602260045260246000fd5b7f4e487b7100000000000000000000000000000000000000000000000000000000600052604160045260246000fd5b6000601f19601f8301169050919050565b7f455243373231413a206d61782062617463682073697a65206d7573742062652060008201527f6e6f6e7a65726f00000000000000000000000000000000000000000000000000602082015250565b7f455243373231413a20636f6c6c656374696f6e206d757374206861766520612060008201527f6e6f6e7a65726f20737570706c79000000000000000000000000000000000000602082015250565b60805160a05161378b62000598600039600081816116af015281816116d801526119b101526000505061378b6000f3fe608060405234801561001057600080fd5b50600436106101425760003560e01c806370a08231116100b8578063ad9df9c71161007c578063ad9df9c714610387578063b88d4fde146103a3578063c87b56dd146103bf578063d7224ba0146103ef578063dc33e6811461040d578063e985e9c51461043d57610142565b806370a08231146102e55780638832e6e31461031557806395d89b4114610331578063a14481941461034f578063a22cb4651461036b57610142565b806323b872dd1161010a57806323b872dd146101ff5780632f745c591461021b57806342842e0e1461024b5780634f6ccce7146102675780636352211e146102975780636c0360eb146102c757610142565b806301ffc9a71461014757806306fdde0314610177578063081812fc14610195578063095ea7b3146101c557806318160ddd146101e1575b600080fd5b610161600480360381019061015c91906125cd565b61046d565b60405161016e9190612a3c565b60405180910390f35b61017f6105b7565b60405161018c9190612a57565b60405180910390f35b6101af60048036038101906101aa919061261f565b610649565b6040516101bc91906129d5565b60405180910390f35b6101df60048036038101906101da91906124af565b6106ce565b005b6101e96107e7565b6040516101f69190612cd9565b60405180910390f35b610219600480360381019061021491906123a9565b6107f0565b005b610235600480360381019061023091906124af565b610800565b6040516102429190612cd9565b60405180910390f35b610265600480360381019061026091906123a9565b6109fe565b005b610281600480360381019061027c919061261f565b610a1e565b60405161028e9190612cd9565b60405180910390f35b6102b160048036038101906102ac919061261f565b610a71565b6040516102be91906129d5565b60405180910390f35b6102cf610a87565b6040516102dc9190612a57565b60405180910390f35b6102ff60048036038101906102fa9190612344565b610a96565b60405161030c9190612cd9565b60405180910390f35b61032f600480360381019061032a91906124eb565b610b7f565b005b610339610b8f565b6040516103469190612a57565b60405180910390f35b610369600480360381019061036491906124af565b610c21565b005b61038560048036038101906103809190612473565b610c2f565b005b6103a1600480360381019061039c9190612552565b610db0565b005b6103bd60048036038101906103b891906123f8565b610dc2565b005b6103d960048036038101906103d4919061261f565b610e1e565b6040516103e69190612a57565b60405180910390f35b6103f7610ec5565b6040516104049190612cd9565b60405180910390f35b61042760048036038101906104229190612344565b610ecb565b6040516104349190612cd9565b60405180910390f35b6104576004803603810190610452919061236d565b610edd565b6040516104649190612a3c565b60405180910390f35b60007f80ac58cd000000000000000000000000000000000000000000000000000000007bffffffffffffffffffffffffffffffffffffffffffffffffffffffff1916827bffffffffffffffffffffffffffffffffffffffffffffffffffffffff1916148061053857507f5b5e139f000000000000000000000000000000000000000000000000000000007bffffffffffffffffffffffffffffffffffffffffffffffffffffffff1916827bffffffffffffffffffffffffffffffffffffffffffffffffffffffff1916145b806105a057507f780e9d63000000000000000000000000000000000000000000000000000000007bffffffffffffffffffffffffffffffffffffffffffffffffffffffff1916827bffffffffffffffffffffffffffffffffffffffffffffffffffffffff1916145b806105b057506105af82610f71565b5b9050919050565b6060600180546105c690612fbe565b80601f01602080910402602001604051908101604052809291908181526020018280546105f290612fbe565b801561063f5780601f106106145761010080835404028352916020019161063f565b820191906000526020600020905b81548152906001019060200180831161062257829003601f168201915b5050505050905090565b600061065482610fdb565b610693576040517f08c379a000000000000000000000000000000000000000000000000000000000815260040161068a90612c99565b60405180910390fd5b6005600083815260200190815260200160002060009054906101000a900473ffffffffffffffffffffffffffffffffffffffff169050919050565b60006106d982610a71565b90508073ffffffffffffffffffffffffffffffffffffffff168373ffffffffffffffffffffffffffffffffffffffff16141561074a576040517f08c379a000000000000000000000000000000000000000000000000000000000815260040161074190612bd9565b60405180910390fd5b8073ffffffffffffffffffffffffffffffffffffffff16610769610fe8565b73ffffffffffffffffffffffffffffffffffffffff161480610798575061079781610792610fe8565b610edd565b5b6107d7576040517f08c379a00000000000000000000000000000000000000000000000000000000081526004016107ce90612b19565b60405180910390fd5b6107e2838383610ff0565b505050565b60008054905090565b6107fb8383836110a2565b505050565b600061080b83610a96565b821061084c576040517f08c379a000000000000000000000000000000000000000000000000000000000815260040161084390612a79565b60405180910390fd5b60006108566107e7565b905060008060005b838110156109bc576000600360008381526020019081526020016000206040518060400160405290816000820160009054906101000a900473ffffffffffffffffffffffffffffffffffffffff1673ffffffffffffffffffffffffffffffffffffffff1673ffffffffffffffffffffffffffffffffffffffff1681526020016000820160149054906101000a900467ffffffffffffffff1667ffffffffffffffff1667ffffffffffffffff16815250509050600073ffffffffffffffffffffffffffffffffffffffff16816000015173ffffffffffffffffffffffffffffffffffffffff161461095057806000015192505b8773ffffffffffffffffffffffffffffffffffffffff168373ffffffffffffffffffffffffffffffffffffffff1614156109a857868414156109995781955050505050506109f8565b83806109a490613021565b9450505b5080806109b490613021565b91505061085e565b506040517f08c379a00000000000000000000000000000000000000000000000000000000081526004016109ef90612c59565b60405180910390fd5b92915050565b610a1983838360405180602001604052806000815250610dc2565b505050565b6000610a286107e7565b8210610a69576040517f08c379a0000000000000000000000000000000000000000000000000000000008152600401610a6090612ab9565b60405180910390fd5b819050919050565b6000610a7c8261165b565b600001519050919050565b6060610a9161185e565b905090565b60008073ffffffffffffffffffffffffffffffffffffffff168273ffffffffffffffffffffffffffffffffffffffff161415610b07576040517f08c379a0000000000000000000000000000000000000000000000000000000008152600401610afe90612b39565b60405180910390fd5b600460008373ffffffffffffffffffffffffffffffffffffffff1673ffffffffffffffffffffffffffffffffffffffff16815260200190815260200160002060000160009054906101000a90046fffffffffffffffffffffffffffffffff166fffffffffffffffffffffffffffffffff169050919050565b610b8a8383836118f0565b505050565b606060028054610b9e90612fbe565b80601f0160208091040260200160405190810160405280929190818152602001828054610bca90612fbe565b8015610c175780601f10610bec57610100808354040283529160200191610c17565b820191906000526020600020905b815481529060010190602001808311610bfa57829003601f168201915b5050505050905090565b610c2b8282611dcf565b5050565b610c37610fe8565b73ffffffffffffffffffffffffffffffffffffffff168273ffffffffffffffffffffffffffffffffffffffff161415610ca5576040517f08c379a0000000000000000000000000000000000000000000000000000000008152600401610c9c90612b99565b60405180910390fd5b8060066000610cb2610fe8565b73ffffffffffffffffffffffffffffffffffffffff1673ffffffffffffffffffffffffffffffffffffffff16815260200190815260200160002060008473ffffffffffffffffffffffffffffffffffffffff1673ffffffffffffffffffffffffffffffffffffffff16815260200190815260200160002060006101000a81548160ff0219169083151502179055508173ffffffffffffffffffffffffffffffffffffffff16610d5f610fe8565b73ffffffffffffffffffffffffffffffffffffffff167f17307eab39ab6107e8899845ad3d59bd9653f200f220920489ca2b5937696c3183604051610da49190612a3c565b60405180910390a35050565b610dbc84848484610db0565b50505050565b610dcd8484846110a2565b610dd984848484611ded565b610e18576040517f08c379a0000000000000000000000000000000000000000000000000000000008152600401610e0f90612bf9565b60405180910390fd5b50505050565b6060610e2982610fdb565b610e68576040517f08c379a0000000000000000000000000000000000000000000000000000000008152600401610e5f90612b79565b60405180910390fd5b6000610e7261185e565b90506000815111610e925760405180602001604052806000815250610ebd565b80610e9c84611f84565b604051602001610ead9291906129b1565b6040516020818303038152906040525b915050919050565b60085481565b6000610ed682612131565b9050919050565b6000600660008473ffffffffffffffffffffffffffffffffffffffff1673ffffffffffffffffffffffffffffffffffffffff16815260200190815260200160002060008373ffffffffffffffffffffffffffffffffffffffff1673ffffffffffffffffffffffffffffffffffffffff16815260200190815260200160002060009054906101000a900460ff16905092915050565b60007f01ffc9a7000000000000000000000000000000000000000000000000000000007bffffffffffffffffffffffffffffffffffffffffffffffffffffffff1916827bffffffffffffffffffffffffffffffffffffffffffffffffffffffff1916149050919050565b6000805482109050919050565b600033905090565b826005600084815260200190815260200160002060006101000a81548173ffffffffffffffffffffffffffffffffffffffff021916908373ffffffffffffffffffffffffffffffffffffffff160217905550818373ffffffffffffffffffffffffffffffffffffffff168273ffffffffffffffffffffffffffffffffffffffff167f8c5be1e5ebec7d5bd14f71427d1e84f3dd0314c0f7b2291e5b200ac8c7c3b92560405160405180910390a4505050565b60006110ad8261165b565b90506000816000015173ffffffffffffffffffffffffffffffffffffffff166110d4610fe8565b73ffffffffffffffffffffffffffffffffffffffff16148061113057506110f9610fe8565b73ffffffffffffffffffffffffffffffffffffffff1661111884610649565b73ffffffffffffffffffffffffffffffffffffffff16145b8061114c575061114b8260000151611146610fe8565b610edd565b5b90508061118e576040517f08c379a000000000000000000000000000000000000000000000000000000000815260040161118590612bb9565b60405180910390fd5b8473ffffffffffffffffffffffffffffffffffffffff16826000015173ffffffffffffffffffffffffffffffffffffffff1614611200576040517f08c379a00000000000000000000000000000000000000000000000000000000081526004016111f790612b59565b60405180910390fd5b600073ffffffffffffffffffffffffffffffffffffffff168473ffffffffffffffffffffffffffffffffffffffff161415611270576040517f08c379a000000000000000000000000000000000000000000000000000000000815260040161126790612ad9565b60405180910390fd5b61127d858585600161221a565b61128d6000848460000151610ff0565b6001600460008773ffffffffffffffffffffffffffffffffffffffff1673ffffffffffffffffffffffffffffffffffffffff16815260200190815260200160002060000160008282829054906101000a90046fffffffffffffffffffffffffffffffff166112fb9190612e5a565b92506101000a8154816fffffffffffffffffffffffffffffffff02191690836fffffffffffffffffffffffffffffffff1602179055506001600460008673ffffffffffffffffffffffffffffffffffffffff1673ffffffffffffffffffffffffffffffffffffffff16815260200190815260200160002060000160008282829054906101000a90046fffffffffffffffffffffffffffffffff1661139f9190612d8d565b92506101000a8154816fffffffffffffffffffffffffffffffff02191690836fffffffffffffffffffffffffffffffff16021790555060405180604001604052808573ffffffffffffffffffffffffffffffffffffffff1681526020014267ffffffffffffffff168152506003600085815260200190815260200160002060008201518160000160006101000a81548173ffffffffffffffffffffffffffffffffffffffff021916908373ffffffffffffffffffffffffffffffffffffffff16021790555060208201518160000160146101000a81548167ffffffffffffffff021916908367ffffffffffffffff16021790555090505060006001846114a59190612dd3565b9050600073ffffffffffffffffffffffffffffffffffffffff166003600083815260200190815260200160002060000160009054906101000a900473ffffffffffffffffffffffffffffffffffffffff1673ffffffffffffffffffffffffffffffffffffffff1614156115eb5761151b81610fdb565b156115ea576040518060400160405280846000015173ffffffffffffffffffffffffffffffffffffffff168152602001846020015167ffffffffffffffff168152506003600083815260200190815260200160002060008201518160000160006101000a81548173ffffffffffffffffffffffffffffffffffffffff021916908373ffffffffffffffffffffffffffffffffffffffff16021790555060208201518160000160146101000a81548167ffffffffffffffff021916908367ffffffffffffffff1602179055509050505b5b838573ffffffffffffffffffffffffffffffffffffffff168773ffffffffffffffffffffffffffffffffffffffff167fddf252ad1be2c89b69c2b068fc378daa952ba7f163c4a11628f55a4df523b3ef60405160405180910390a46116538686866001612220565b505050505050565b611663612239565b61166c82610fdb565b6116ab576040517f08c379a00000000000000000000000000000000000000000000000000000000081526004016116a290612a99565b60405180910390fd5b60007f0000000000000000000000000000000000000000000000000000000000000000831061170f5760017f0000000000000000000000000000000000000000000000000000000000000000846117029190612e8e565b61170c9190612dd3565b90505b60008390505b81811061181d576000600360008381526020019081526020016000206040518060400160405290816000820160009054906101000a900473ffffffffffffffffffffffffffffffffffffffff1673ffffffffffffffffffffffffffffffffffffffff1673ffffffffffffffffffffffffffffffffffffffff1681526020016000820160149054906101000a900467ffffffffffffffff1667ffffffffffffffff1667ffffffffffffffff16815250509050600073ffffffffffffffffffffffffffffffffffffffff16816000015173ffffffffffffffffffffffffffffffffffffffff161461180957809350505050611859565b50808061181590612f94565b915050611715565b506040517f08c379a000000000000000000000000000000000000000000000000000000000815260040161185090612c79565b60405180910390fd5b919050565b60606007805461186d90612fbe565b80601f016020809104026020016040519081016040528092919081815260200182805461189990612fbe565b80156118e65780601f106118bb576101008083540402835291602001916118e6565b820191906000526020600020905b8154815290600101906020018083116118c957829003601f168201915b5050505050905090565b600080549050600073ffffffffffffffffffffffffffffffffffffffff168473ffffffffffffffffffffffffffffffffffffffff161415611966576040517f08c379a000000000000000000000000000000000000000000000000000000000815260040161195d90612c39565b60405180910390fd5b61196f81610fdb565b156119af576040517f08c379a00000000000000000000000000000000000000000000000000000000081526004016119a690612c19565b60405180910390fd5b7f0000000000000000000000000000000000000000000000000000000000000000831115611a12576040517f08c379a0000000000000000000000000000000000000000000000000000000008152600401611a0990612cb9565b60405180910390fd5b611a1f600085838661221a565b6000600460008673ffffffffffffffffffffffffffffffffffffffff1673ffffffffffffffffffffffffffffffffffffffff1681526020019081526020016000206040518060400160405290816000820160009054906101000a90046fffffffffffffffffffffffffffffffff166fffffffffffffffffffffffffffffffff166fffffffffffffffffffffffffffffffff1681526020016000820160109054906101000a90046fffffffffffffffffffffffffffffffff166fffffffffffffffffffffffffffffffff166fffffffffffffffffffffffffffffffff168152505090506040518060400160405280858360000151611b1c9190612d8d565b6fffffffffffffffffffffffffffffffff168152602001858360200151611b439190612d8d565b6fffffffffffffffffffffffffffffffff16815250600460008773ffffffffffffffffffffffffffffffffffffffff1673ffffffffffffffffffffffffffffffffffffffff16815260200190815260200160002060008201518160000160006101000a8154816fffffffffffffffffffffffffffffffff02191690836fffffffffffffffffffffffffffffffff16021790555060208201518160000160106101000a8154816fffffffffffffffffffffffffffffffff02191690836fffffffffffffffffffffffffffffffff16021790555090505060405180604001604052808673ffffffffffffffffffffffffffffffffffffffff1681526020014267ffffffffffffffff168152506003600084815260200190815260200160002060008201518160000160006101000a81548173ffffffffffffffffffffffffffffffffffffffff021916908373ffffffffffffffffffffffffffffffffffffffff16021790555060208201518160000160146101000a81548167ffffffffffffffff021916908367ffffffffffffffff160217905550905050600082905060005b85811015611db257818773ffffffffffffffffffffffffffffffffffffffff16600073ffffffffffffffffffffffffffffffffffffffff167fddf252ad1be2c89b69c2b068fc378daa952ba7f163c4a11628f55a4df523b3ef60405160405180910390a4611d526000888488611ded565b611d91576040517f08c379a0000000000000000000000000000000000000000000000000000000008152600401611d8890612bf9565b60405180910390fd5b8180611d9c90613021565b9250508080611daa90613021565b915050611ce1565b5080600081905550611dc76000878588612220565b505050505050565b611de98282604051806020016040528060008152506118f0565b5050565b6000611e0e8473ffffffffffffffffffffffffffffffffffffffff16612226565b15611f77578373ffffffffffffffffffffffffffffffffffffffff1663150b7a02611e37610fe8565b8786866040518563ffffffff1660e01b8152600401611e5994939291906129f0565b602060405180830381600087803b158015611e7357600080fd5b505af1925050508015611ea457506040513d601f19601f82011682018060405250810190611ea191906125f6565b60015b611f27573d8060008114611ed4576040519150601f19603f3d011682016040523d82523d6000602084013e611ed9565b606091505b50600081511415611f1f576040517f08c379a0000000000000000000000000000000000000000000000000000000008152600401611f1690612bf9565b60405180910390fd5b805181602001fd5b63150b7a0260e01b7bffffffffffffffffffffffffffffffffffffffffffffffffffffffff1916817bffffffffffffffffffffffffffffffffffffffffffffffffffffffff191614915050611f7c565b600190505b949350505050565b60606000821415611fcc576040518060400160405280600181526020017f3000000000000000000000000000000000000000000000000000000000000000815250905061212c565b600082905060005b60008214611ffe578080611fe790613021565b915050600a82611ff79190612e29565b9150611fd4565b60008167ffffffffffffffff811115612040577f4e487b7100000000000000000000000000000000000000000000000000000000600052604160045260246000fd5b6040519080825280601f01601f1916602001820160405280156120725781602001600182028036833780820191505090505b5090505b600085146121255760018261208b9190612e8e565b9150600a8561209a919061306a565b60306120a69190612dd3565b60f81b8183815181106120e2577f4e487b7100000000000000000000000000000000000000000000000000000000600052603260045260246000fd5b60200101907effffffffffffffffffffffffffffffffffffffffffffffffffffffffffffff1916908160001a905350600a8561211e9190612e29565b9450612076565b8093505050505b919050565b60008073ffffffffffffffffffffffffffffffffffffffff168273ffffffffffffffffffffffffffffffffffffffff1614156121a2576040517f08c379a000000000000000000000000000000000000000000000000000000000815260040161219990612af9565b60405180910390fd5b600460008373ffffffffffffffffffffffffffffffffffffffff1673ffffffffffffffffffffffffffffffffffffffff16815260200190815260200160002060000160109054906101000a90046fffffffffffffffffffffffffffffffff166fffffffffffffffffffffffffffffffff169050919050565b50505050565b50505050565b600080823b905060008111915050919050565b6040518060400160405280600073ffffffffffffffffffffffffffffffffffffffff168152602001600067ffffffffffffffff1681525090565b600061228661228184612d19565b612cf4565b90508281526020810184848401111561229e57600080fd5b6122a9848285612f52565b509392505050565b6000813590506122c0816136f9565b92915050565b6000813590506122d581613710565b92915050565b6000813590506122ea81613727565b92915050565b6000815190506122ff81613727565b92915050565b600082601f83011261231657600080fd5b8135612326848260208601612273565b91505092915050565b60008135905061233e8161373e565b92915050565b60006020828403121561235657600080fd5b6000612364848285016122b1565b91505092915050565b6000806040838503121561238057600080fd5b600061238e858286016122b1565b925050602061239f858286016122b1565b9150509250929050565b6000806000606084860312156123be57600080fd5b60006123cc868287016122b1565b93505060206123dd868287016122b1565b92505060406123ee8682870161232f565b9150509250925092565b6000806000806080858703121561240e57600080fd5b600061241c878288016122b1565b945050602061242d878288016122b1565b935050604061243e8782880161232f565b925050606085013567ffffffffffffffff81111561245b57600080fd5b61246787828801612305565b91505092959194509250565b6000806040838503121561248657600080fd5b6000612494858286016122b1565b92505060206124a5858286016122c6565b9150509250929050565b600080604083850312156124c257600080fd5b60006124d0858286016122b1565b92505060206124e18582860161232f565b9150509250929050565b60008060006060848603121561250057600080fd5b600061250e868287016122b1565b935050602061251f8682870161232f565b925050604084013567ffffffffffffffff81111561253c57600080fd5b61254886828701612305565b9150509250925092565b6000806000806080858703121561256857600080fd5b6000612576878288016122b1565b94505060206125878782880161232f565b935050604085013567ffffffffffffffff8111156125a457600080fd5b6125b087828801612305565b92505060606125c1878288016122c6565b91505092959194509250565b6000602082840312156125df57600080fd5b60006125ed848285016122db565b91505092915050565b60006020828403121561260857600080fd5b6000612616848285016122f0565b91505092915050565b60006020828403121561263157600080fd5b600061263f8482850161232f565b91505092915050565b61265181612ec2565b82525050565b61266081612ed4565b82525050565b600061267182612d4a565b61267b8185612d60565b935061268b818560208601612f61565b61269481613157565b840191505092915050565b60006126aa82612d55565b6126b48185612d71565b93506126c4818560208601612f61565b6126cd81613157565b840191505092915050565b60006126e382612d55565b6126ed8185612d82565b93506126fd818560208601612f61565b80840191505092915050565b6000612716602283612d71565b915061272182613168565b604082019050919050565b6000612739602a83612d71565b9150612744826131b7565b604082019050919050565b600061275c602383612d71565b915061276782613206565b604082019050919050565b600061277f602583612d71565b915061278a82613255565b604082019050919050565b60006127a2603183612d71565b91506127ad826132a4565b604082019050919050565b60006127c5603983612d71565b91506127d0826132f3565b604082019050919050565b60006127e8602b83612d71565b91506127f382613342565b604082019050919050565b600061280b602683612d71565b915061281682613391565b604082019050919050565b600061282e602f83612d71565b9150612839826133e0565b604082019050919050565b6000612851601a83612d71565b915061285c8261342f565b602082019050919050565b6000612874603283612d71565b915061287f82613458565b604082019050919050565b6000612897602283612d71565b91506128a2826134a7565b604082019050919050565b60006128ba603383612d71565b91506128c5826134f6565b604082019050919050565b60006128dd601d83612d71565b91506128e882613545565b602082019050919050565b6000612900602183612d71565b915061290b8261356e565b604082019050919050565b6000612923602e83612d71565b915061292e826135bd565b604082019050919050565b6000612946602f83612d71565b91506129518261360c565b604082019050919050565b6000612969602d83612d71565b91506129748261365b565b604082019050919050565b600061298c602283612d71565b9150612997826136aa565b604082019050919050565b6129ab81612f48565b82525050565b60006129bd82856126d8565b91506129c982846126d8565b91508190509392505050565b60006020820190506129ea6000830184612648565b92915050565b6000608082019050612a056000830187612648565b612a126020830186612648565b612a1f60408301856129a2565b8181036060830152612a318184612666565b905095945050505050565b6000602082019050612a516000830184612657565b92915050565b60006020820190508181036000830152612a71818461269f565b905092915050565b60006020820190508181036000830152612a9281612709565b9050919050565b60006020820190508181036000830152612ab28161272c565b9050919050565b60006020820190508181036000830152612ad28161274f565b9050919050565b60006020820190508181036000830152612af281612772565b9050919050565b60006020820190508181036000830152612b1281612795565b9050919050565b60006020820190508181036000830152612b32816127b8565b9050919050565b60006020820190508181036000830152612b52816127db565b9050919050565b60006020820190508181036000830152612b72816127fe565b9050919050565b60006020820190508181036000830152612b9281612821565b9050919050565b60006020820190508181036000830152612bb281612844565b9050919050565b60006020820190508181036000830152612bd281612867565b9050919050565b60006020820190508181036000830152612bf28161288a565b9050919050565b60006020820190508181036000830152612c12816128ad565b9050919050565b60006020820190508181036000830152612c32816128d0565b9050919050565b60006020820190508181036000830152612c52816128f3565b9050919050565b60006020820190508181036000830152612c7281612916565b9050919050565b60006020820190508181036000830152612c9281612939565b9050919050565b60006020820190508181036000830152612cb28161295c565b9050919050565b60006020820190508181036000830152612cd28161297f565b9050919050565b6000602082019050612cee60008301846129a2565b92915050565b6000612cfe612d0f565b9050612d0a8282612ff0565b919050565b6000604051905090565b600067ffffffffffffffff821115612d3457612d33613128565b5b612d3d82613157565b9050602081019050919050565b600081519050919050565b600081519050919050565b600082825260208201905092915050565b600082825260208201905092915050565b600081905092915050565b6000612d9882612f0c565b9150612da383612f0c565b9250826fffffffffffffffffffffffffffffffff03821115612dc857612dc761309b565b5b828201905092915050565b6000612dde82612f48565b9150612de983612f48565b9250827fffffffffffffffffffffffffffffffffffffffffffffffffffffffffffffffff03821115612e1e57612e1d61309b565b5b828201905092915050565b6000612e3482612f48565b9150612e3f83612f48565b925082612e4f57612e4e6130ca565b5b828204905092915050565b6000612e6582612f0c565b9150612e7083612f0c565b925082821015612e8357612e8261309b565b5b828203905092915050565b6000612e9982612f48565b9150612ea483612f48565b925082821015612eb757612eb661309b565b5b828203905092915050565b6000612ecd82612f28565b9050919050565b60008115159050919050565b60007fffffffff0000000000000000000000000000000000000000000000000000000082169050919050565b60006fffffffffffffffffffffffffffffffff82169050919050565b600073ffffffffffffffffffffffffffffffffffffffff82169050919050565b6000819050919050565b82818337600083830152505050565b60005b83811015612f7f578082015181840152602081019050612f64565b83811115612f8e576000848401525b50505050565b6000612f9f82612f48565b91506000821415612fb357612fb261309b565b5b600182039050919050565b60006002820490506001821680612fd657607f821691505b60208210811415612fea57612fe96130f9565b5b50919050565b612ff982613157565b810181811067ffffffffffffffff8211171561301857613017613128565b5b80604052505050565b600061302c82612f48565b91507fffffffffffffffffffffffffffffffffffffffffffffffffffffffffffffffff82141561305f5761305e61309b565b5b600182019050919050565b600061307582612f48565b915061308083612f48565b9250826130905761308f6130ca565b5b828206905092915050565b7f4e487b7100000000000000000000000000000000000000000000000000000000600052601160045260246000fd5b7f4e487b7100000000000000000000000000000000000000000000000000000000600052601260045260246000fd5b7f4e487b7100000000000000000000000000000000000000000000000000000000600052602260045260246000fd5b7f4e487b7100000000000000000000000000000000000000000000000000000000600052604160045260246000fd5b6000601f19601f8301169050919050565b7f455243373231413a206f776e657220696e646578206f7574206f6620626f756e60008201527f6473000000000000000000000000000000000000000000000000000000000000602082015250565b7f455243373231413a206f776e657220717565727920666f72206e6f6e6578697360008201527f74656e7420746f6b656e00000000000000000000000000000000000000000000602082015250565b7f455243373231413a20676c6f62616c20696e646578206f7574206f6620626f7560008201527f6e64730000000000000000000000000000000000000000000000000000000000602082015250565b7f455243373231413a207472616e7366657220746f20746865207a65726f20616460008201527f6472657373000000000000000000000000000000000000000000000000000000602082015250565b7f455243373231413a206e756d626572206d696e74656420717565727920666f7260008201527f20746865207a65726f2061646472657373000000000000000000000000000000602082015250565b7f455243373231413a20617070726f76652063616c6c6572206973206e6f74206f60008201527f776e6572206e6f7220617070726f76656420666f7220616c6c00000000000000602082015250565b7f455243373231413a2062616c616e636520717565727920666f7220746865207a60008201527f65726f2061646472657373000000000000000000000000000000000000000000602082015250565b7f455243373231413a207472616e736665722066726f6d20696e636f727265637460008201527f206f776e65720000000000000000000000000000000000000000000000000000602082015250565b7f4552433732314d657461646174613a2055524920717565727920666f72206e6f60008201527f6e6578697374656e7420746f6b656e0000000000000000000000000000000000602082015250565b7f455243373231413a20617070726f766520746f2063616c6c6572000000000000600082015250565b7f455243373231413a207472616e736665722063616c6c6572206973206e6f742060008201527f6f776e6572206e6f7220617070726f7665640000000000000000000000000000602082015250565b7f455243373231413a20617070726f76616c20746f2063757272656e74206f776e60008201527f6572000000000000000000000000000000000000000000000000000000000000602082015250565b7f455243373231413a207472616e7366657220746f206e6f6e204552433732315260008201527f6563656976657220696d706c656d656e74657200000000000000000000000000602082015250565b7f455243373231413a20746f6b656e20616c7265616479206d696e746564000000600082015250565b7f455243373231413a206d696e7420746f20746865207a65726f2061646472657360008201527f7300000000000000000000000000000000000000000000000000000000000000602082015250565b7f455243373231413a20756e61626c6520746f2067657420746f6b656e206f662060008201527f6f776e657220627920696e646578000000000000000000000000000000000000602082015250565b7f455243373231413a20756e61626c6520746f2064657465726d696e652074686560008201527f206f776e6572206f6620746f6b656e0000000000000000000000000000000000602082015250565b7f455243373231413a20617070726f76656420717565727920666f72206e6f6e6560008201527f78697374656e7420746f6b656e00000000000000000000000000000000000000602082015250565b7f455243373231413a207175616e7469747920746f206d696e7420746f6f20686960008201527f6768000000000000000000000000000000000000000000000000000000000000602082015250565b61370281612ec2565b811461370d57600080fd5b50565b61371981612ed4565b811461372457600080fd5b50565b61373081612ee0565b811461373b57600080fd5b50565b61374781612f48565b811461375257600080fd5b5056fea2646970667358221220f23d042be74bdebfd321cafc783013b5cd752088d24d8d06fbf64bed4b250b9664736f6c63430008040033",
  "linkReferences": {},
  "deployedLinkReferences": {}
}