{
  "_format": "hh-sol-artifact-1",
  "contractName": "ERC721A",
  "sourceName": "contracts/ERC721A.sol",
  "abi": [
    {
      "inputs": [
        {
          "internalType": "string",
          "name": "name_",
          "type": "string"
        },
        {
          "internalType": "string",
          "name": "symbol_",
          "type": "string"
        },
        {
          "internalType": "uint256",
          "name": "maxBatchSize_",
          "type": "uint256"
        },
        {
          "internalType": "uint256",
          "name": "collectionSize_",
          "type": "uint256"
        }
      ],
      "stateMutability": "nonpayable",
      "type": "constructor"
    },
    {
      "anonymous": false,
      "inputs": [
        {
          "indexed": true,
          "internalType": "address",
          "name": "owner",
          "type": "address"
        },
        {
          "indexed": true,
          "internalType": "address",
          "name": "approved",
          "type": "address"
        },
        {
          "indexed": true,
          "internalType": "uint256",
          "name": "tokenId",
          "type": "uint256"
        }
      ],
      "name": "Approval",
      "type": "event"
    },
    {
      "anonymous": false,
      "inputs": [
        {
          "indexed": true,
          "internalType": "address",
          "name": "owner",
          "type": "address"
        },
        {
          "indexed": true,
          "internalType": "address",
          "name": "operator",
          "type": "address"
        },
        {
          "indexed": false,
          "internalType": "bool",
          "name": "approved",
          "type": "bool"
        }
      ],
      "name": "ApprovalForAll",
      "type": "event"
    },
    {
      "anonymous": false,
      "inputs": [
        {
          "indexed": true,
          "internalType": "address",
          "name": "from",
          "type": "address"
        },
        {
          "indexed": true,
          "internalType": "address",
          "name": "to",
          "type": "address"
        },
        {
          "indexed": true,
          "internalType": "uint256",
          "name": "tokenId",
          "type": "uint256"
        }
      ],
      "name": "Transfer",
      "type": "event"
    },
    {
      "inputs": [
        {
          "internalType": "address",
          "name": "to",
          "type": "address"
        },
        {
          "internalType": "uint256",
          "name": "tokenId",
          "type": "uint256"
        }
      ],
      "name": "approve",
      "outputs": [],
      "stateMutability": "nonpayable",
      "type": "function"
    },
    {
      "inputs": [
        {
          "internalType": "address",
          "name": "owner",
          "type": "address"
        }
      ],
      "name": "balanceOf",
      "outputs": [
        {
          "internalType": "uint256",
          "name": "",
          "type": "uint256"
        }
      ],
      "stateMutability": "view",
      "type": "function"
    },
    {
      "inputs": [
        {
          "internalType": "uint256",
          "name": "tokenId",
          "type": "uint256"
        }
      ],
      "name": "getApproved",
      "outputs": [
        {
          "internalType": "address",
          "name": "",
          "type": "address"
        }
      ],
      "stateMutability": "view",
      "type": "function"
    },
    {
      "inputs": [
        {
          "internalType": "address",
          "name": "owner",
          "type": "address"
        },
        {
          "internalType": "address",
          "name": "operator",
          "type": "address"
        }
      ],
      "name": "isApprovedForAll",
      "outputs": [
        {
          "internalType": "bool",
          "name": "",
          "type": "bool"
        }
      ],
      "stateMutability": "view",
      "type": "function"
    },
    {
      "inputs": [],
      "name": "name",
      "outputs": [
        {
          "internalType": "string",
          "name": "",
          "type": "string"
        }
      ],
      "stateMutability": "view",
      "type": "function"
    },
    {
      "inputs": [],
      "name": "nextOwnerToExplicitlySet",
      "outputs": [
        {
          "internalType": "uint256",
          "name": "",
          "type": "uint256"
        }
      ],
      "stateMutability": "view",
      "type": "function"
    },
    {
      "inputs": [
        {
          "internalType": "uint256",
          "name": "tokenId",
          "type": "uint256"
        }
      ],
      "name": "ownerOf",
      "outputs": [
        {
          "internalType": "address",
          "name": "",
          "type": "address"
        }
      ],
      "stateMutability": "view",
      "type": "function"
    },
    {
      "inputs": [
        {
          "internalType": "address",
          "name": "from",
          "type": "address"
        },
        {
          "internalType": "address",
          "name": "to",
          "type": "address"
        },
        {
          "internalType": "uint256",
          "name": "tokenId",
          "type": "uint256"
        }
      ],
      "name": "safeTransferFrom",
      "outputs": [],
      "stateMutability": "nonpayable",
      "type": "function"
    },
    {
      "inputs": [
        {
          "internalType": "address",
          "name": "from",
          "type": "address"
        },
        {
          "internalType": "address",
          "name": "to",
          "type": "address"
        },
        {
          "internalType": "uint256",
          "name": "tokenId",
          "type": "uint256"
        },
        {
          "internalType": "bytes",
          "name": "_data",
          "type": "bytes"
        }
      ],
      "name": "safeTransferFrom",
      "outputs": [],
      "stateMutability": "nonpayable",
      "type": "function"
    },
    {
      "inputs": [
        {
          "internalType": "address",
          "name": "operator",
          "type": "address"
        },
        {
          "internalType": "bool",
          "name": "approved",
          "type": "bool"
        }
      ],
      "name": "setApprovalForAll",
      "outputs": [],
      "stateMutability": "nonpayable",
      "type": "function"
    },
    {
      "inputs": [
        {
          "internalType": "bytes4",
          "name": "interfaceId",
          "type": "bytes4"
        }
      ],
      "name": "supportsInterface",
      "outputs": [
        {
          "internalType": "bool",
          "name": "",
          "type": "bool"
        }
      ],
      "stateMutability": "view",
      "type": "function"
    },
    {
      "inputs": [],
      "name": "symbol",
      "outputs": [
        {
          "internalType": "string",
          "name": "",
          "type": "string"
        }
      ],
      "stateMutability": "view",
      "type": "function"
    },
    {
      "inputs": [
        {
          "internalType": "uint256",
          "name": "index",
          "type": "uint256"
        }
      ],
      "name": "tokenByIndex",
      "outputs": [
        {
          "internalType": "uint256",
          "name": "",
          "type": "uint256"
        }
      ],
      "stateMutability": "view",
      "type": "function"
    },
    {
      "inputs": [
        {
          "internalType": "address",
          "name": "owner",
          "type": "address"
        },
        {
          "internalType": "uint256",
          "name": "index",
          "type": "uint256"
        }
      ],
      "name": "tokenOfOwnerByIndex",
      "outputs": [
        {
          "internalType": "uint256",
          "name": "",
          "type": "uint256"
        }
      ],
      "stateMutability": "view",
      "type": "function"
    },
    {
      "inputs": [
        {
          "internalType": "uint256",
          "name": "tokenId",
          "type": "uint256"
        }
      ],
      "name": "tokenURI",
      "outputs": [
        {
          "internalType": "string",
          "name": "",
          "type": "string"
        }
      ],
      "stateMutability": "view",
      "type": "function"
    },
    {
      "inputs": [],
      "name": "totalSupply",
      "outputs": [
        {
          "internalType": "uint256",
          "name": "",
          "type": "uint256"
        }
      ],
      "stateMutability": "view",
      "type": "function"
    },
    {
      "inputs": [
        {
          "internalType": "address",
          "name": "from",
          "type": "address"
        },
        {
          "internalType": "address",
          "name": "to",
          "type": "address"
        },
        {
          "internalType": "uint256",
          "name": "tokenId",
          "type": "uint256"
        }
      ],
      "name": "transferFrom",
      "outputs": [],
      "stateMutability": "nonpayable",
      "type": "function"
    }
  ],
  "bytecode": "0x60c06040526000805560006008553480156200001a57600080fd5b506040516200336538038062003365833981810160405281019062000040919062000251565b6000811162000086576040517f08c379a00000000000000000000000000000000000000000000000000000000081526004016200007d906200035f565b60405180910390fd5b60008211620000cc576040517f08c379a0000000000000000000000000000000000000000000000000000000008152600401620000c3906200033d565b60405180910390fd5b8360019080519060200190620000e492919062000118565b508260029080519060200190620000fd92919062000118565b508160a08181525050806080818152505050505050620005c4565b828054620001269062000431565b90600052602060002090601f0160209004810192826200014a576000855562000196565b82601f106200016557805160ff191683800117855562000196565b8280016001018555821562000196579182015b828111156200019557825182559160200191906001019062000178565b5b509050620001a59190620001a9565b5090565b5b80821115620001c4576000816000905550600101620001aa565b5090565b6000620001df620001d984620003aa565b62000381565b905082815260208101848484011115620001f857600080fd5b62000205848285620003fb565b509392505050565b600082601f8301126200021f57600080fd5b815162000231848260208601620001c8565b91505092915050565b6000815190506200024b81620005aa565b92915050565b600080600080608085870312156200026857600080fd5b600085015167ffffffffffffffff8111156200028357600080fd5b62000291878288016200020d565b945050602085015167ffffffffffffffff811115620002af57600080fd5b620002bd878288016200020d565b9350506040620002d0878288016200023a565b9250506060620002e3878288016200023a565b91505092959194509250565b6000620002fe602783620003e0565b91506200030b826200050c565b604082019050919050565b600062000325602e83620003e0565b915062000332826200055b565b604082019050919050565b600060208201905081810360008301526200035881620002ef565b9050919050565b600060208201905081810360008301526200037a8162000316565b9050919050565b60006200038d620003a0565b90506200039b828262000467565b919050565b6000604051905090565b600067ffffffffffffffff821115620003c857620003c7620004cc565b5b620003d382620004fb565b9050602081019050919050565b600082825260208201905092915050565b6000819050919050565b60005b838110156200041b578082015181840152602081019050620003fe565b838111156200042b576000848401525b50505050565b600060028204905060018216806200044a57607f821691505b602082108114156200046157620004606200049d565b5b50919050565b6200047282620004fb565b810181811067ffffffffffffffff82111715620004945762000493620004cc565b5b80604052505050565b7f4e487b7100000000000000000000000000000000000000000000000000000000600052602260045260246000fd5b7f4e487b7100000000000000000000000000000000000000000000000000000000600052604160045260246000fd5b6000601f19601f8301169050919050565b7f455243373231413a206d61782062617463682073697a65206d7573742062652060008201527f6e6f6e7a65726f00000000000000000000000000000000000000000000000000602082015250565b7f455243373231413a20636f6c6c656374696f6e206d757374206861766520612060008201527f6e6f6e7a65726f20737570706c79000000000000000000000000000000000000602082015250565b620005b581620003f1565b8114620005c157600080fd5b50565b60805160a051612d77620005ee6000396000818161158501526115ae015260005050612d776000f3fe608060405234801561001057600080fd5b506004361061010b5760003560e01c80634f6ccce7116100a2578063a22cb46511610071578063a22cb465146102de578063b88d4fde146102fa578063c87b56dd14610316578063d7224ba014610346578063e985e9c5146103645761010b565b80634f6ccce7146102305780636352211e1461026057806370a082311461029057806395d89b41146102c05761010b565b806318160ddd116100de57806318160ddd146101aa57806323b872dd146101c85780632f745c59146101e457806342842e0e146102145761010b565b806301ffc9a71461011057806306fdde0314610140578063081812fc1461015e578063095ea7b31461018e575b600080fd5b61012a60048036038101906101259190611ddb565b610394565b60405161013791906121be565b60405180910390f35b6101486104de565b60405161015591906121d9565b60405180910390f35b61017860048036038101906101739190611e2d565b610570565b6040516101859190612157565b60405180910390f35b6101a860048036038101906101a39190611d9f565b6105f5565b005b6101b261070e565b6040516101bf91906123db565b60405180910390f35b6101e260048036038101906101dd9190611c99565b610717565b005b6101fe60048036038101906101f99190611d9f565b610727565b60405161020b91906123db565b60405180910390f35b61022e60048036038101906102299190611c99565b610925565b005b61024a60048036038101906102459190611e2d565b610945565b60405161025791906123db565b60405180910390f35b61027a60048036038101906102759190611e2d565b610998565b6040516102879190612157565b60405180910390f35b6102aa60048036038101906102a59190611c34565b6109ae565b6040516102b791906123db565b60405180910390f35b6102c8610a97565b6040516102d591906121d9565b60405180910390f35b6102f860048036038101906102f39190611d63565b610b29565b005b610314600480360381019061030f9190611ce8565b610caa565b005b610330600480360381019061032b9190611e2d565b610d06565b60405161033d91906121d9565b60405180910390f35b61034e610dad565b60405161035b91906123db565b60405180910390f35b61037e60048036038101906103799190611c5d565b610db3565b60405161038b91906121be565b60405180910390f35b60007f80ac58cd000000000000000000000000000000000000000000000000000000007bffffffffffffffffffffffffffffffffffffffffffffffffffffffff1916827bffffffffffffffffffffffffffffffffffffffffffffffffffffffff1916148061045f57507f5b5e139f000000000000000000000000000000000000000000000000000000007bffffffffffffffffffffffffffffffffffffffffffffffffffffffff1916827bffffffffffffffffffffffffffffffffffffffffffffffffffffffff1916145b806104c757507f780e9d63000000000000000000000000000000000000000000000000000000007bffffffffffffffffffffffffffffffffffffffffffffffffffffffff1916827bffffffffffffffffffffffffffffffffffffffffffffffffffffffff1916145b806104d757506104d682610e47565b5b9050919050565b6060600180546104ed906126c0565b80601f0160208091040260200160405190810160405280929190818152602001828054610519906126c0565b80156105665780601f1061053b57610100808354040283529160200191610566565b820191906000526020600020905b81548152906001019060200180831161054957829003601f168201915b5050505050905090565b600061057b82610eb1565b6105ba576040517f08c379a00000000000000000000000000000000000000000000000000000000081526004016105b1906123bb565b60405180910390fd5b6005600083815260200190815260200160002060009054906101000a900473ffffffffffffffffffffffffffffffffffffffff169050919050565b600061060082610998565b90508073ffffffffffffffffffffffffffffffffffffffff168373ffffffffffffffffffffffffffffffffffffffff161415610671576040517f08c379a00000000000000000000000000000000000000000000000000000000081526004016106689061233b565b60405180910390fd5b8073ffffffffffffffffffffffffffffffffffffffff16610690610ebe565b73ffffffffffffffffffffffffffffffffffffffff1614806106bf57506106be816106b9610ebe565b610db3565b5b6106fe576040517f08c379a00000000000000000000000000000000000000000000000000000000081526004016106f59061227b565b60405180910390fd5b610709838383610ec6565b505050565b60008054905090565b610722838383610f78565b505050565b6000610732836109ae565b8210610773576040517f08c379a000000000000000000000000000000000000000000000000000000000815260040161076a906121fb565b60405180910390fd5b600061077d61070e565b905060008060005b838110156108e3576000600360008381526020019081526020016000206040518060400160405290816000820160009054906101000a900473ffffffffffffffffffffffffffffffffffffffff1673ffffffffffffffffffffffffffffffffffffffff1673ffffffffffffffffffffffffffffffffffffffff1681526020016000820160149054906101000a900467ffffffffffffffff1667ffffffffffffffff1667ffffffffffffffff16815250509050600073ffffffffffffffffffffffffffffffffffffffff16816000015173ffffffffffffffffffffffffffffffffffffffff161461087757806000015192505b8773ffffffffffffffffffffffffffffffffffffffff168373ffffffffffffffffffffffffffffffffffffffff1614156108cf57868414156108c057819550505050505061091f565b83806108cb90612723565b9450505b5080806108db90612723565b915050610785565b506040517f08c379a00000000000000000000000000000000000000000000000000000000081526004016109169061237b565b60405180910390fd5b92915050565b61094083838360405180602001604052806000815250610caa565b505050565b600061094f61070e565b8210610990576040517f08c379a00000000000000000000000000000000000000000000000000000000081526004016109879061223b565b60405180910390fd5b819050919050565b60006109a382611531565b600001519050919050565b60008073ffffffffffffffffffffffffffffffffffffffff168273ffffffffffffffffffffffffffffffffffffffff161415610a1f576040517f08c379a0000000000000000000000000000000000000000000000000000000008152600401610a169061229b565b60405180910390fd5b600460008373ffffffffffffffffffffffffffffffffffffffff1673ffffffffffffffffffffffffffffffffffffffff16815260200190815260200160002060000160009054906101000a90046fffffffffffffffffffffffffffffffff166fffffffffffffffffffffffffffffffff169050919050565b606060028054610aa6906126c0565b80601f0160208091040260200160405190810160405280929190818152602001828054610ad2906126c0565b8015610b1f5780601f10610af457610100808354040283529160200191610b1f565b820191906000526020600020905b815481529060010190602001808311610b0257829003601f168201915b5050505050905090565b610b31610ebe565b73ffffffffffffffffffffffffffffffffffffffff168273ffffffffffffffffffffffffffffffffffffffff161415610b9f576040517f08c379a0000000000000000000000000000000000000000000000000000000008152600401610b96906122fb565b60405180910390fd5b8060066000610bac610ebe565b73ffffffffffffffffffffffffffffffffffffffff1673ffffffffffffffffffffffffffffffffffffffff16815260200190815260200160002060008473ffffffffffffffffffffffffffffffffffffffff1673ffffffffffffffffffffffffffffffffffffffff16815260200190815260200160002060006101000a81548160ff0219169083151502179055508173ffffffffffffffffffffffffffffffffffffffff16610c59610ebe565b73ffffffffffffffffffffffffffffffffffffffff167f17307eab39ab6107e8899845ad3d59bd9653f200f220920489ca2b5937696c3183604051610c9e91906121be565b60405180910390a35050565b610cb5848484610f78565b610cc184848484611734565b610d00576040517f08c379a0000000000000000000000000000000000000000000000000000000008152600401610cf79061235b565b60405180910390fd5b50505050565b6060610d1182610eb1565b610d50576040517f08c379a0000000000000000000000000000000000000000000000000000000008152600401610d47906122db565b60405180910390fd5b6000610d5a6118cb565b90506000815111610d7a5760405180602001604052806000815250610da5565b80610d848461195d565b604051602001610d95929190612133565b6040516020818303038152906040525b915050919050565b60085481565b6000600660008473ffffffffffffffffffffffffffffffffffffffff1673ffffffffffffffffffffffffffffffffffffffff16815260200190815260200160002060008373ffffffffffffffffffffffffffffffffffffffff1673ffffffffffffffffffffffffffffffffffffffff16815260200190815260200160002060009054906101000a900460ff16905092915050565b60007f01ffc9a7000000000000000000000000000000000000000000000000000000007bffffffffffffffffffffffffffffffffffffffffffffffffffffffff1916827bffffffffffffffffffffffffffffffffffffffffffffffffffffffff1916149050919050565b6000805482109050919050565b600033905090565b826005600084815260200190815260200160002060006101000a81548173ffffffffffffffffffffffffffffffffffffffff021916908373ffffffffffffffffffffffffffffffffffffffff160217905550818373ffffffffffffffffffffffffffffffffffffffff168273ffffffffffffffffffffffffffffffffffffffff167f8c5be1e5ebec7d5bd14f71427d1e84f3dd0314c0f7b2291e5b200ac8c7c3b92560405160405180910390a4505050565b6000610f8382611531565b90506000816000015173ffffffffffffffffffffffffffffffffffffffff16610faa610ebe565b73ffffffffffffffffffffffffffffffffffffffff1614806110065750610fcf610ebe565b73ffffffffffffffffffffffffffffffffffffffff16610fee84610570565b73ffffffffffffffffffffffffffffffffffffffff16145b806110225750611021826000015161101c610ebe565b610db3565b5b905080611064576040517f08c379a000000000000000000000000000000000000000000000000000000000815260040161105b9061231b565b60405180910390fd5b8473ffffffffffffffffffffffffffffffffffffffff16826000015173ffffffffffffffffffffffffffffffffffffffff16146110d6576040517f08c379a00000000000000000000000000000000000000000000000000000000081526004016110cd906122bb565b60405180910390fd5b600073ffffffffffffffffffffffffffffffffffffffff168473ffffffffffffffffffffffffffffffffffffffff161415611146576040517f08c379a000000000000000000000000000000000000000000000000000000000815260040161113d9061225b565b60405180910390fd5b6111538585856001611b0a565b6111636000848460000151610ec6565b6001600460008773ffffffffffffffffffffffffffffffffffffffff1673ffffffffffffffffffffffffffffffffffffffff16815260200190815260200160002060000160008282829054906101000a90046fffffffffffffffffffffffffffffffff166111d1919061255c565b92506101000a8154816fffffffffffffffffffffffffffffffff02191690836fffffffffffffffffffffffffffffffff1602179055506001600460008673ffffffffffffffffffffffffffffffffffffffff1673ffffffffffffffffffffffffffffffffffffffff16815260200190815260200160002060000160008282829054906101000a90046fffffffffffffffffffffffffffffffff16611275919061248f565b92506101000a8154816fffffffffffffffffffffffffffffffff02191690836fffffffffffffffffffffffffffffffff16021790555060405180604001604052808573ffffffffffffffffffffffffffffffffffffffff1681526020014267ffffffffffffffff168152506003600085815260200190815260200160002060008201518160000160006101000a81548173ffffffffffffffffffffffffffffffffffffffff021916908373ffffffffffffffffffffffffffffffffffffffff16021790555060208201518160000160146101000a81548167ffffffffffffffff021916908367ffffffffffffffff160217905550905050600060018461137b91906124d5565b9050600073ffffffffffffffffffffffffffffffffffffffff166003600083815260200190815260200160002060000160009054906101000a900473ffffffffffffffffffffffffffffffffffffffff1673ffffffffffffffffffffffffffffffffffffffff1614156114c1576113f181610eb1565b156114c0576040518060400160405280846000015173ffffffffffffffffffffffffffffffffffffffff168152602001846020015167ffffffffffffffff168152506003600083815260200190815260200160002060008201518160000160006101000a81548173ffffffffffffffffffffffffffffffffffffffff021916908373ffffffffffffffffffffffffffffffffffffffff16021790555060208201518160000160146101000a81548167ffffffffffffffff021916908367ffffffffffffffff1602179055509050505b5b838573ffffffffffffffffffffffffffffffffffffffff168773ffffffffffffffffffffffffffffffffffffffff167fddf252ad1be2c89b69c2b068fc378daa952ba7f163c4a11628f55a4df523b3ef60405160405180910390a46115298686866001611b10565b505050505050565b611539611b29565b61154282610eb1565b611581576040517f08c379a00000000000000000000000000000000000000000000000000000000081526004016115789061221b565b60405180910390fd5b60007f000000000000000000000000000000000000000000000000000000000000000083106115e55760017f0000000000000000000000000000000000000000000000000000000000000000846115d89190612590565b6115e291906124d5565b90505b60008390505b8181106116f3576000600360008381526020019081526020016000206040518060400160405290816000820160009054906101000a900473ffffffffffffffffffffffffffffffffffffffff1673ffffffffffffffffffffffffffffffffffffffff1673ffffffffffffffffffffffffffffffffffffffff1681526020016000820160149054906101000a900467ffffffffffffffff1667ffffffffffffffff1667ffffffffffffffff16815250509050600073ffffffffffffffffffffffffffffffffffffffff16816000015173ffffffffffffffffffffffffffffffffffffffff16146116df5780935050505061172f565b5080806116eb90612696565b9150506115eb565b506040517f08c379a00000000000000000000000000000000000000000000000000000000081526004016117269061239b565b60405180910390fd5b919050565b60006117558473ffffffffffffffffffffffffffffffffffffffff16611b16565b156118be578373ffffffffffffffffffffffffffffffffffffffff1663150b7a0261177e610ebe565b8786866040518563ffffffff1660e01b81526004016117a09493929190612172565b602060405180830381600087803b1580156117ba57600080fd5b505af19250505080156117eb57506040513d601f19601f820116820180604052508101906117e89190611e04565b60015b61186e573d806000811461181b576040519150601f19603f3d011682016040523d82523d6000602084013e611820565b606091505b50600081511415611866576040517f08c379a000000000000000000000000000000000000000000000000000000000815260040161185d9061235b565b60405180910390fd5b805181602001fd5b63150b7a0260e01b7bffffffffffffffffffffffffffffffffffffffffffffffffffffffff1916817bffffffffffffffffffffffffffffffffffffffffffffffffffffffff1916149150506118c3565b600190505b949350505050565b6060600780546118da906126c0565b80601f0160208091040260200160405190810160405280929190818152602001828054611906906126c0565b80156119535780601f1061192857610100808354040283529160200191611953565b820191906000526020600020905b81548152906001019060200180831161193657829003601f168201915b5050505050905090565b606060008214156119a5576040518060400160405280600181526020017f30000000000000000000000000000000000000000000000000000000000000008152509050611b05565b600082905060005b600082146119d75780806119c090612723565b915050600a826119d0919061252b565b91506119ad565b60008167ffffffffffffffff811115611a19577f4e487b7100000000000000000000000000000000000000000000000000000000600052604160045260246000fd5b6040519080825280601f01601f191660200182016040528015611a4b5781602001600182028036833780820191505090505b5090505b60008514611afe57600182611a649190612590565b9150600a85611a73919061276c565b6030611a7f91906124d5565b60f81b818381518110611abb577f4e487b7100000000000000000000000000000000000000000000000000000000600052603260045260246000fd5b60200101907effffffffffffffffffffffffffffffffffffffffffffffffffffffffffffff1916908160001a905350600a85611af7919061252b565b9450611a4f565b8093505050505b919050565b50505050565b50505050565b600080823b905060008111915050919050565b6040518060400160405280600073ffffffffffffffffffffffffffffffffffffffff168152602001600067ffffffffffffffff1681525090565b6000611b76611b718461241b565b6123f6565b905082815260208101848484011115611b8e57600080fd5b611b99848285612654565b509392505050565b600081359050611bb081612ce5565b92915050565b600081359050611bc581612cfc565b92915050565b600081359050611bda81612d13565b92915050565b600081519050611bef81612d13565b92915050565b600082601f830112611c0657600080fd5b8135611c16848260208601611b63565b91505092915050565b600081359050611c2e81612d2a565b92915050565b600060208284031215611c4657600080fd5b6000611c5484828501611ba1565b91505092915050565b60008060408385031215611c7057600080fd5b6000611c7e85828601611ba1565b9250506020611c8f85828601611ba1565b9150509250929050565b600080600060608486031215611cae57600080fd5b6000611cbc86828701611ba1565b9350506020611ccd86828701611ba1565b9250506040611cde86828701611c1f565b9150509250925092565b60008060008060808587031215611cfe57600080fd5b6000611d0c87828801611ba1565b9450506020611d1d87828801611ba1565b9350506040611d2e87828801611c1f565b925050606085013567ffffffffffffffff811115611d4b57600080fd5b611d5787828801611bf5565b91505092959194509250565b60008060408385031215611d7657600080fd5b6000611d8485828601611ba1565b9250506020611d9585828601611bb6565b9150509250929050565b60008060408385031215611db257600080fd5b6000611dc085828601611ba1565b9250506020611dd185828601611c1f565b9150509250929050565b600060208284031215611ded57600080fd5b6000611dfb84828501611bcb565b91505092915050565b600060208284031215611e1657600080fd5b6000611e2484828501611be0565b91505092915050565b600060208284031215611e3f57600080fd5b6000611e4d84828501611c1f565b91505092915050565b611e5f816125c4565b82525050565b611e6e816125d6565b82525050565b6000611e7f8261244c565b611e898185612462565b9350611e99818560208601612663565b611ea281612859565b840191505092915050565b6000611eb882612457565b611ec28185612473565b9350611ed2818560208601612663565b611edb81612859565b840191505092915050565b6000611ef182612457565b611efb8185612484565b9350611f0b818560208601612663565b80840191505092915050565b6000611f24602283612473565b9150611f2f8261286a565b604082019050919050565b6000611f47602a83612473565b9150611f52826128b9565b604082019050919050565b6000611f6a602383612473565b9150611f7582612908565b604082019050919050565b6000611f8d602583612473565b9150611f9882612957565b604082019050919050565b6000611fb0603983612473565b9150611fbb826129a6565b604082019050919050565b6000611fd3602b83612473565b9150611fde826129f5565b604082019050919050565b6000611ff6602683612473565b915061200182612a44565b604082019050919050565b6000612019602f83612473565b915061202482612a93565b604082019050919050565b600061203c601a83612473565b915061204782612ae2565b602082019050919050565b600061205f603283612473565b915061206a82612b0b565b604082019050919050565b6000612082602283612473565b915061208d82612b5a565b604082019050919050565b60006120a5603383612473565b91506120b082612ba9565b604082019050919050565b60006120c8602e83612473565b91506120d382612bf8565b604082019050919050565b60006120eb602f83612473565b91506120f682612c47565b604082019050919050565b600061210e602d83612473565b915061211982612c96565b604082019050919050565b61212d8161264a565b82525050565b600061213f8285611ee6565b915061214b8284611ee6565b91508190509392505050565b600060208201905061216c6000830184611e56565b92915050565b60006080820190506121876000830187611e56565b6121946020830186611e56565b6121a16040830185612124565b81810360608301526121b38184611e74565b905095945050505050565b60006020820190506121d36000830184611e65565b92915050565b600060208201905081810360008301526121f38184611ead565b905092915050565b6000602082019050818103600083015261221481611f17565b9050919050565b6000602082019050818103600083015261223481611f3a565b9050919050565b6000602082019050818103600083015261225481611f5d565b9050919050565b6000602082019050818103600083015261227481611f80565b9050919050565b6000602082019050818103600083015261229481611fa3565b9050919050565b600060208201905081810360008301526122b481611fc6565b9050919050565b600060208201905081810360008301526122d481611fe9565b9050919050565b600060208201905081810360008301526122f48161200c565b9050919050565b600060208201905081810360008301526123148161202f565b9050919050565b6000602082019050818103600083015261233481612052565b9050919050565b6000602082019050818103600083015261235481612075565b9050919050565b6000602082019050818103600083015261237481612098565b9050919050565b60006020820190508181036000830152612394816120bb565b9050919050565b600060208201905081810360008301526123b4816120de565b9050919050565b600060208201905081810360008301526123d481612101565b9050919050565b60006020820190506123f06000830184612124565b92915050565b6000612400612411565b905061240c82826126f2565b919050565b6000604051905090565b600067ffffffffffffffff8211156124365761243561282a565b5b61243f82612859565b9050602081019050919050565b600081519050919050565b600081519050919050565b600082825260208201905092915050565b600082825260208201905092915050565b600081905092915050565b600061249a8261260e565b91506124a58361260e565b9250826fffffffffffffffffffffffffffffffff038211156124ca576124c961279d565b5b828201905092915050565b60006124e08261264a565b91506124eb8361264a565b9250827fffffffffffffffffffffffffffffffffffffffffffffffffffffffffffffffff038211156125205761251f61279d565b5b828201905092915050565b60006125368261264a565b91506125418361264a565b925082612551576125506127cc565b5b828204905092915050565b60006125678261260e565b91506125728361260e565b9250828210156125855761258461279d565b5b828203905092915050565b600061259b8261264a565b91506125a68361264a565b9250828210156125b9576125b861279d565b5b828203905092915050565b60006125cf8261262a565b9050919050565b60008115159050919050565b60007fffffffff0000000000000000000000000000000000000000000000000000000082169050919050565b60006fffffffffffffffffffffffffffffffff82169050919050565b600073ffffffffffffffffffffffffffffffffffffffff82169050919050565b6000819050919050565b82818337600083830152505050565b60005b83811015612681578082015181840152602081019050612666565b83811115612690576000848401525b50505050565b60006126a18261264a565b915060008214156126b5576126b461279d565b5b600182039050919050565b600060028204905060018216806126d857607f821691505b602082108114156126ec576126eb6127fb565b5b50919050565b6126fb82612859565b810181811067ffffffffffffffff8211171561271a5761271961282a565b5b80604052505050565b600061272e8261264a565b91507fffffffffffffffffffffffffffffffffffffffffffffffffffffffffffffffff8214156127615761276061279d565b5b600182019050919050565b60006127778261264a565b91506127828361264a565b925082612792576127916127cc565b5b828206905092915050565b7f4e487b7100000000000000000000000000000000000000000000000000000000600052601160045260246000fd5b7f4e487b7100000000000000000000000000000000000000000000000000000000600052601260045260246000fd5b7f4e487b7100000000000000000000000000000000000000000000000000000000600052602260045260246000fd5b7f4e487b7100000000000000000000000000000000000000000000000000000000600052604160045260246000fd5b6000601f19601f8301169050919050565b7f455243373231413a206f776e657220696e646578206f7574206f6620626f756e60008201527f6473000000000000000000000000000000000000000000000000000000000000602082015250565b7f455243373231413a206f776e657220717565727920666f72206e6f6e6578697360008201527f74656e7420746f6b656e00000000000000000000000000000000000000000000602082015250565b7f455243373231413a20676c6f62616c20696e646578206f7574206f6620626f7560008201527f6e64730000000000000000000000000000000000000000000000000000000000602082015250565b7f455243373231413a207472616e7366657220746f20746865207a65726f20616460008201527f6472657373000000000000000000000000000000000000000000000000000000602082015250565b7f455243373231413a20617070726f76652063616c6c6572206973206e6f74206f60008201527f776e6572206e6f7220617070726f76656420666f7220616c6c00000000000000602082015250565b7f455243373231413a2062616c616e636520717565727920666f7220746865207a60008201527f65726f2061646472657373000000000000000000000000000000000000000000602082015250565b7f455243373231413a207472616e736665722066726f6d20696e636f727265637460008201527f206f776e65720000000000000000000000000000000000000000000000000000602082015250565b7f4552433732314d657461646174613a2055524920717565727920666f72206e6f60008201527f6e6578697374656e7420746f6b656e0000000000000000000000000000000000602082015250565b7f455243373231413a20617070726f766520746f2063616c6c6572000000000000600082015250565b7f455243373231413a207472616e736665722063616c6c6572206973206e6f742060008201527f6f776e6572206e6f7220617070726f7665640000000000000000000000000000602082015250565b7f455243373231413a20617070726f76616c20746f2063757272656e74206f776e60008201527f6572000000000000000000000000000000000000000000000000000000000000602082015250565b7f455243373231413a207472616e7366657220746f206e6f6e204552433732315260008201527f6563656976657220696d706c656d656e74657200000000000000000000000000602082015250565b7f455243373231413a20756e61626c6520746f2067657420746f6b656e206f662060008201527f6f776e657220627920696e646578000000000000000000000000000000000000602082015250565b7f455243373231413a20756e61626c6520746f2064657465726d696e652074686560008201527f206f776e6572206f6620746f6b656e0000000000000000000000000000000000602082015250565b7f455243373231413a20617070726f76656420717565727920666f72206e6f6e6560008201527f78697374656e7420746f6b656e00000000000000000000000000000000000000602082015250565b612cee816125c4565b8114612cf957600080fd5b50565b612d05816125d6565b8114612d1057600080fd5b50565b612d1c816125e2565b8114612d2757600080fd5b50565b612d338161264a565b8114612d3e57600080fd5b5056fea2646970667358221220ddd4200f1f81aa4098938b311c0f8c20f0128ddaf8469aca99c606080cbc241e64736f6c63430008040033",
  "linkReferences": {},
  "deployedLinkReferences": {}
}