{
  "_format": "hh-sol-artifact-1",
  "contractName": "Template721",
  "sourceName": "contracts/721Template.sol",
  "abi": [
    {
      "inputs": [
        {
          "internalType": "string",
          "name": "name",
          "type": "string"
        },
        {
          "internalType": "string",
          "name": "symbol",
          "type": "string"
        },
        {
          "internalType": "uint256",
          "name": "_price",
          "type": "uint256"
        },
        {
          "internalType": "uint256",
          "name": "_wlPrice",
          "type": "uint256"
        },
        {
          "internalType": "uint256",
          "name": "_maxSupply",
          "type": "uint256"
        },
        {
          "internalType": "uint256",
          "name": "_maxMintPerTx",
          "type": "uint256"
        },
        {
          "internalType": "address payable",
          "name": "_payee",
          "type": "address"
        },
        {
          "internalType": "string",
          "name": "_uri",
          "type": "string"
        }
      ],
      "stateMutability": "nonpayable",
      "type": "constructor"
    },
    {
      "anonymous": false,
      "inputs": [
        {
          "indexed": true,
          "internalType": "address",
          "name": "owner",
          "type": "address"
        },
        {
          "indexed": true,
          "internalType": "address",
          "name": "approved",
          "type": "address"
        },
        {
          "indexed": true,
          "internalType": "uint256",
          "name": "tokenId",
          "type": "uint256"
        }
      ],
      "name": "Approval",
      "type": "event"
    },
    {
      "anonymous": false,
      "inputs": [
        {
          "indexed": true,
          "internalType": "address",
          "name": "owner",
          "type": "address"
        },
        {
          "indexed": true,
          "internalType": "address",
          "name": "operator",
          "type": "address"
        },
        {
          "indexed": false,
          "internalType": "bool",
          "name": "approved",
          "type": "bool"
        }
      ],
      "name": "ApprovalForAll",
      "type": "event"
    },
    {
      "anonymous": false,
      "inputs": [
        {
          "indexed": true,
          "internalType": "address",
          "name": "previousOwner",
          "type": "address"
        },
        {
          "indexed": true,
          "internalType": "address",
          "name": "newOwner",
          "type": "address"
        }
      ],
      "name": "OwnershipTransferred",
      "type": "event"
    },
    {
      "anonymous": false,
      "inputs": [
        {
          "indexed": true,
          "internalType": "address",
          "name": "from",
          "type": "address"
        },
        {
          "indexed": true,
          "internalType": "address",
          "name": "to",
          "type": "address"
        },
        {
          "indexed": true,
          "internalType": "uint256",
          "name": "tokenId",
          "type": "uint256"
        }
      ],
      "name": "Transfer",
      "type": "event"
    },
    {
      "inputs": [
        {
          "internalType": "address",
          "name": "to",
          "type": "address"
        },
        {
          "internalType": "uint256",
          "name": "tokenId",
          "type": "uint256"
        }
      ],
      "name": "approve",
      "outputs": [],
      "stateMutability": "nonpayable",
      "type": "function"
    },
    {
      "inputs": [
        {
          "internalType": "address",
          "name": "owner",
          "type": "address"
        }
      ],
      "name": "balanceOf",
      "outputs": [
        {
          "internalType": "uint256",
          "name": "",
          "type": "uint256"
        }
      ],
      "stateMutability": "view",
      "type": "function"
    },
    {
      "inputs": [
        {
          "internalType": "uint256",
          "name": "tokenId",
          "type": "uint256"
        }
      ],
      "name": "getApproved",
      "outputs": [
        {
          "internalType": "address",
          "name": "",
          "type": "address"
        }
      ],
      "stateMutability": "view",
      "type": "function"
    },
    {
      "inputs": [
        {
          "internalType": "address",
          "name": "",
          "type": "address"
        }
      ],
      "name": "hasMinted",
      "outputs": [
        {
          "internalType": "bool",
          "name": "",
          "type": "bool"
        }
      ],
      "stateMutability": "view",
      "type": "function"
    },
    {
      "inputs": [
        {
          "internalType": "address",
          "name": "owner",
          "type": "address"
        },
        {
          "internalType": "address",
          "name": "operator",
          "type": "address"
        }
      ],
      "name": "isApprovedForAll",
      "outputs": [
        {
          "internalType": "bool",
          "name": "",
          "type": "bool"
        }
      ],
      "stateMutability": "view",
      "type": "function"
    },
    {
      "inputs": [
        {
          "internalType": "address",
          "name": "_recipient",
          "type": "address"
        },
        {
          "internalType": "bytes32[]",
          "name": "_merkleProof",
          "type": "bytes32[]"
        }
      ],
      "name": "isWhitelisted",
      "outputs": [
        {
          "internalType": "bool",
          "name": "",
          "type": "bool"
        }
      ],
      "stateMutability": "view",
      "type": "function"
    },
    {
      "inputs": [],
      "name": "maxMintPerTx",
      "outputs": [
        {
          "internalType": "uint256",
          "name": "",
          "type": "uint256"
        }
      ],
      "stateMutability": "view",
      "type": "function"
    },
    {
      "inputs": [],
      "name": "maxSupply",
      "outputs": [
        {
          "internalType": "uint256",
          "name": "",
          "type": "uint256"
        }
      ],
      "stateMutability": "view",
      "type": "function"
    },
    {
      "inputs": [],
      "name": "merkleRoot",
      "outputs": [
        {
          "internalType": "bytes32",
          "name": "",
          "type": "bytes32"
        }
      ],
      "stateMutability": "view",
      "type": "function"
    },
    {
      "inputs": [
        {
          "internalType": "uint256",
          "name": "amount",
          "type": "uint256"
        },
        {
          "internalType": "address",
          "name": "_recipient",
          "type": "address"
        },
        {
          "internalType": "bytes32[]",
          "name": "_merkleProof",
          "type": "bytes32[]"
        }
      ],
      "name": "mint",
      "outputs": [],
      "stateMutability": "payable",
      "type": "function"
    },
    {
      "inputs": [
        {
          "internalType": "uint256",
          "name": "amount",
          "type": "uint256"
        },
        {
          "internalType": "address",
          "name": "_recipient",
          "type": "address"
        }
      ],
      "name": "mintTo",
      "outputs": [],
      "stateMutability": "nonpayable",
      "type": "function"
    },
    {
      "inputs": [],
      "name": "name",
      "outputs": [
        {
          "internalType": "string",
          "name": "",
          "type": "string"
        }
      ],
      "stateMutability": "view",
      "type": "function"
    },
    {
      "inputs": [],
      "name": "nextOwnerToExplicitlySet",
      "outputs": [
        {
          "internalType": "uint256",
          "name": "",
          "type": "uint256"
        }
      ],
      "stateMutability": "view",
      "type": "function"
    },
    {
      "inputs": [],
      "name": "owner",
      "outputs": [
        {
          "internalType": "address",
          "name": "",
          "type": "address"
        }
      ],
      "stateMutability": "view",
      "type": "function"
    },
    {
      "inputs": [
        {
          "internalType": "uint256",
          "name": "tokenId",
          "type": "uint256"
        }
      ],
      "name": "ownerOf",
      "outputs": [
        {
          "internalType": "address",
          "name": "",
          "type": "address"
        }
      ],
      "stateMutability": "view",
      "type": "function"
    },
    {
      "inputs": [],
      "name": "price",
      "outputs": [
        {
          "internalType": "uint256",
          "name": "",
          "type": "uint256"
        }
      ],
      "stateMutability": "view",
      "type": "function"
    },
    {
      "inputs": [],
      "name": "renounceOwnership",
      "outputs": [],
      "stateMutability": "nonpayable",
      "type": "function"
    },
    {
      "inputs": [
        {
          "internalType": "address[]",
          "name": "whitelistedAddress",
          "type": "address[]"
        }
      ],
      "name": "resetWhitelists",
      "outputs": [],
      "stateMutability": "nonpayable",
      "type": "function"
    },
    {
      "inputs": [
        {
          "internalType": "address",
          "name": "from",
          "type": "address"
        },
        {
          "internalType": "address",
          "name": "to",
          "type": "address"
        },
        {
          "internalType": "uint256",
          "name": "tokenId",
          "type": "uint256"
        }
      ],
      "name": "safeTransferFrom",
      "outputs": [],
      "stateMutability": "nonpayable",
      "type": "function"
    },
    {
      "inputs": [
        {
          "internalType": "address",
          "name": "from",
          "type": "address"
        },
        {
          "internalType": "address",
          "name": "to",
          "type": "address"
        },
        {
          "internalType": "uint256",
          "name": "tokenId",
          "type": "uint256"
        },
        {
          "internalType": "bytes",
          "name": "_data",
          "type": "bytes"
        }
      ],
      "name": "safeTransferFrom",
      "outputs": [],
      "stateMutability": "nonpayable",
      "type": "function"
    },
    {
      "inputs": [],
      "name": "saleOpen",
      "outputs": [
        {
          "internalType": "bool",
          "name": "",
          "type": "bool"
        }
      ],
      "stateMutability": "view",
      "type": "function"
    },
    {
      "inputs": [
        {
          "internalType": "address",
          "name": "operator",
          "type": "address"
        },
        {
          "internalType": "bool",
          "name": "approved",
          "type": "bool"
        }
      ],
      "name": "setApprovalForAll",
      "outputs": [],
      "stateMutability": "nonpayable",
      "type": "function"
    },
    {
      "inputs": [
        {
          "internalType": "bytes32",
          "name": "root",
          "type": "bytes32"
        }
      ],
      "name": "setRoot",
      "outputs": [],
      "stateMutability": "nonpayable",
      "type": "function"
    },
    {
      "inputs": [
        {
          "internalType": "bool",
          "name": "state",
          "type": "bool"
        }
      ],
      "name": "setSaleState",
      "outputs": [],
      "stateMutability": "nonpayable",
      "type": "function"
    },
    {
      "inputs": [
        {
          "internalType": "string",
          "name": "_uri",
          "type": "string"
        }
      ],
      "name": "setURI",
      "outputs": [],
      "stateMutability": "nonpayable",
      "type": "function"
    },
    {
      "inputs": [
        {
          "internalType": "bool",
          "name": "state",
          "type": "bool"
        }
      ],
      "name": "setWhitelistState",
      "outputs": [],
      "stateMutability": "nonpayable",
      "type": "function"
    },
    {
      "inputs": [
        {
          "internalType": "bytes4",
          "name": "interfaceId",
          "type": "bytes4"
        }
      ],
      "name": "supportsInterface",
      "outputs": [
        {
          "internalType": "bool",
          "name": "",
          "type": "bool"
        }
      ],
      "stateMutability": "view",
      "type": "function"
    },
    {
      "inputs": [],
      "name": "symbol",
      "outputs": [
        {
          "internalType": "string",
          "name": "",
          "type": "string"
        }
      ],
      "stateMutability": "view",
      "type": "function"
    },
    {
      "inputs": [
        {
          "internalType": "uint256",
          "name": "index",
          "type": "uint256"
        }
      ],
      "name": "tokenByIndex",
      "outputs": [
        {
          "internalType": "uint256",
          "name": "",
          "type": "uint256"
        }
      ],
      "stateMutability": "view",
      "type": "function"
    },
    {
      "inputs": [
        {
          "internalType": "address",
          "name": "owner",
          "type": "address"
        },
        {
          "internalType": "uint256",
          "name": "index",
          "type": "uint256"
        }
      ],
      "name": "tokenOfOwnerByIndex",
      "outputs": [
        {
          "internalType": "uint256",
          "name": "",
          "type": "uint256"
        }
      ],
      "stateMutability": "view",
      "type": "function"
    },
    {
      "inputs": [
        {
          "internalType": "uint256",
          "name": "tokenId",
          "type": "uint256"
        }
      ],
      "name": "tokenURI",
      "outputs": [
        {
          "internalType": "string",
          "name": "",
          "type": "string"
        }
      ],
      "stateMutability": "view",
      "type": "function"
    },
    {
      "inputs": [],
      "name": "totalSupply",
      "outputs": [
        {
          "internalType": "uint256",
          "name": "",
          "type": "uint256"
        }
      ],
      "stateMutability": "view",
      "type": "function"
    },
    {
      "inputs": [
        {
          "internalType": "address",
          "name": "from",
          "type": "address"
        },
        {
          "internalType": "address",
          "name": "to",
          "type": "address"
        },
        {
          "internalType": "uint256",
          "name": "tokenId",
          "type": "uint256"
        }
      ],
      "name": "transferFrom",
      "outputs": [],
      "stateMutability": "nonpayable",
      "type": "function"
    },
    {
      "inputs": [
        {
          "internalType": "address",
          "name": "newOwner",
          "type": "address"
        }
      ],
      "name": "transferOwnership",
      "outputs": [],
      "stateMutability": "nonpayable",
      "type": "function"
    },
    {
      "inputs": [],
      "name": "whitelistOnly",
      "outputs": [
        {
          "internalType": "bool",
          "name": "",
          "type": "bool"
        }
      ],
      "stateMutability": "view",
      "type": "function"
    },
    {
      "inputs": [],
      "name": "whitelistPrice",
      "outputs": [
        {
          "internalType": "uint256",
          "name": "",
          "type": "uint256"
        }
      ],
      "stateMutability": "view",
      "type": "function"
    },
    {
      "inputs": [],
      "name": "withdraw",
      "outputs": [],
      "stateMutability": "nonpayable",
      "type": "function"
    }
  ],
  "bytecode": "0x60c0604052600080556000600855731dd7134a77f5e3e2e63162bbdcfd494140908270600b60006101000a81548173ffffffffffffffffffffffffffffffffffffffff021916908373ffffffffffffffffffffffffffffffffffffffff1602179055506001601160146101000a81548160ff0219169083151502179055503480156200008a57600080fd5b5060405162005a9738038062005a978339818101604052810190620000b0919062000451565b878760328660008111620000fb576040517f08c379a0000000000000000000000000000000000000000000000000000000008152600401620000f290620005cf565b60405180910390fd5b6000821162000141576040517f08c379a00000000000000000000000000000000000000000000000000000000081526004016200013890620005ad565b60405180910390fd5b83600190805190602001906200015992919062000301565b5082600290805190602001906200017292919062000301565b508160a08181525050806080818152505050505050620001a76200019b6200023360201b60201c565b6200023b60201b60201c565b6001600a8190555083600c8190555082600d8190555085600f819055508460108190555081601160006101000a81548173ffffffffffffffffffffffffffffffffffffffff021916908373ffffffffffffffffffffffffffffffffffffffff16021790555080600790805190602001906200022492919062000301565b50505050505050505062000882565b600033905090565b6000600960009054906101000a900473ffffffffffffffffffffffffffffffffffffffff16905081600960006101000a81548173ffffffffffffffffffffffffffffffffffffffff021916908373ffffffffffffffffffffffffffffffffffffffff1602179055508173ffffffffffffffffffffffffffffffffffffffff168173ffffffffffffffffffffffffffffffffffffffff167f8be0079c531659141344cd1fd0a4f28419497f9722a3daafe3b4186f6b6457e060405160405180910390a35050565b8280546200030f90620006d5565b90600052602060002090601f0160209004810192826200033357600085556200037f565b82601f106200034e57805160ff19168380011785556200037f565b828001600101855582156200037f579182015b828111156200037e57825182559160200191906001019062000361565b5b5090506200038e919062000392565b5090565b5b80821115620003ad57600081600090555060010162000393565b5090565b6000620003c8620003c2846200061a565b620005f1565b905082815260208101848484011115620003e157600080fd5b620003ee8482856200069f565b509392505050565b60008151905062000407816200084e565b92915050565b600082601f8301126200041f57600080fd5b815162000431848260208601620003b1565b91505092915050565b6000815190506200044b8162000868565b92915050565b600080600080600080600080610100898b0312156200046f57600080fd5b600089015167ffffffffffffffff8111156200048a57600080fd5b620004988b828c016200040d565b985050602089015167ffffffffffffffff811115620004b657600080fd5b620004c48b828c016200040d565b9750506040620004d78b828c016200043a565b9650506060620004ea8b828c016200043a565b9550506080620004fd8b828c016200043a565b94505060a0620005108b828c016200043a565b93505060c0620005238b828c01620003f6565b92505060e089015167ffffffffffffffff8111156200054157600080fd5b6200054f8b828c016200040d565b9150509295985092959890939650565b60006200056e60278362000650565b91506200057b82620007b0565b604082019050919050565b600062000595602e8362000650565b9150620005a282620007ff565b604082019050919050565b60006020820190508181036000830152620005c8816200055f565b9050919050565b60006020820190508181036000830152620005ea8162000586565b9050919050565b6000620005fd62000610565b90506200060b82826200070b565b919050565b6000604051905090565b600067ffffffffffffffff82111562000638576200063762000770565b5b62000643826200079f565b9050602081019050919050565b600082825260208201905092915050565b60006200066e8262000675565b9050919050565b600073ffffffffffffffffffffffffffffffffffffffff82169050919050565b6000819050919050565b60005b83811015620006bf578082015181840152602081019050620006a2565b83811115620006cf576000848401525b50505050565b60006002820490506001821680620006ee57607f821691505b6020821081141562000705576200070462000741565b5b50919050565b62000716826200079f565b810181811067ffffffffffffffff8211171562000738576200073762000770565b5b80604052505050565b7f4e487b7100000000000000000000000000000000000000000000000000000000600052602260045260246000fd5b7f4e487b7100000000000000000000000000000000000000000000000000000000600052604160045260246000fd5b6000601f19601f8301169050919050565b7f455243373231413a206d61782062617463682073697a65206d7573742062652060008201527f6e6f6e7a65726f00000000000000000000000000000000000000000000000000602082015250565b7f455243373231413a20636f6c6c656374696f6e206d757374206861766520612060008201527f6e6f6e7a65726f20737570706c79000000000000000000000000000000000000602082015250565b620008598162000661565b81146200086557600080fd5b50565b620008738162000695565b81146200087f57600080fd5b50565b60805160a0516151e4620008b3600039600081816127e20152818161280b0152612efa0152600050506151e46000f3fe60806040526004361061021a5760003560e01c80636352211e11610123578063b88d4fde116100ab578063dab5f3401161006f578063dab5f340146107d6578063de7fcb1d146107ff578063e985e9c51461082a578063f2fde38b14610867578063fc1a1c36146108905761021a565b8063b88d4fde146106f1578063c4e370951461071a578063c87b56dd14610743578063d5abeb0114610780578063d7224ba0146107ab5761021a565b806395d89b41116100f257806395d89b411461061e57806399288dbb14610649578063a035b1fe14610674578063a22cb4651461069f578063b723b34e146106c85761021a565b80636352211e1461056257806370a082311461059f578063715018a6146105dc5780638da5cb5b146105f35761021a565b80632f745c59116101a657806342842e0e1161017557806342842e0e1461047857806347c699d1146104a15780634b4687b5146104bd5780634f6ccce7146104e85780635a23dd99146105255761021a565b80632f745c59146103be57806338e21cce146103fb5780633ccfd60b146104385780633e3b7ec21461044f5761021a565b8063095ea7b3116101ed578063095ea7b3146102ed57806318160ddd146103165780631df0bb8a1461034157806323b872dd1461036a5780632eb4a7ab146103935761021a565b806301ffc9a71461021f57806302fe53051461025c57806306fdde0314610285578063081812fc146102b0575b600080fd5b34801561022b57600080fd5b506102466004803603810190610241919061397a565b6108bb565b6040516102539190614086565b60405180910390f35b34801561026857600080fd5b50610283600480360381019061027e91906139cc565b610a05565b005b34801561029157600080fd5b5061029a610a9b565b6040516102a791906140bc565b60405180910390f35b3480156102bc57600080fd5b506102d760048036038101906102d29190613a0d565b610b2d565b6040516102e4919061401f565b60405180910390f35b3480156102f957600080fd5b50610314600480360381019061030f91906138ab565b610bb2565b005b34801561032257600080fd5b5061032b610ccb565b604051610338919061445e565b60405180910390f35b34801561034d57600080fd5b5061036860048036038101906103639190613928565b610cd4565b005b34801561037657600080fd5b50610391600480360381019061038c919061374d565b610d6d565b005b34801561039f57600080fd5b506103a8610d7d565b6040516103b591906140a1565b60405180910390f35b3480156103ca57600080fd5b506103e560048036038101906103e091906138ab565b610d83565b6040516103f2919061445e565b60405180910390f35b34801561040757600080fd5b50610422600480360381019061041d91906136e8565b610f81565b60405161042f9190614086565b60405180910390f35b34801561044457600080fd5b5061044d610fa1565b005b34801561045b57600080fd5b50610476600480360381019061047191906138e7565b6110d9565b005b34801561048457600080fd5b5061049f600480360381019061049a919061374d565b611210565b005b6104bb60048036038101906104b69190613a72565b611230565b005b3480156104c957600080fd5b506104d2611701565b6040516104df9190614086565b60405180910390f35b3480156104f457600080fd5b5061050f600480360381019061050a9190613a0d565b611714565b60405161051c919061445e565b60405180910390f35b34801561053157600080fd5b5061054c60048036038101906105479190613817565b611767565b6040516105599190614086565b60405180910390f35b34801561056e57600080fd5b5061058960048036038101906105849190613a0d565b6117eb565b604051610596919061401f565b60405180910390f35b3480156105ab57600080fd5b506105c660048036038101906105c191906136e8565b611801565b6040516105d3919061445e565b60405180910390f35b3480156105e857600080fd5b506105f16118ea565b005b3480156105ff57600080fd5b50610608611972565b604051610615919061401f565b60405180910390f35b34801561062a57600080fd5b5061063361199c565b60405161064091906140bc565b60405180910390f35b34801561065557600080fd5b5061065e611a2e565b60405161066b9190614086565b60405180910390f35b34801561068057600080fd5b50610689611a41565b604051610696919061445e565b60405180910390f35b3480156106ab57600080fd5b506106c660048036038101906106c1919061386f565b611a47565b005b3480156106d457600080fd5b506106ef60048036038101906106ea9190613a36565b611bc8565b005b3480156106fd57600080fd5b506107186004803603810190610713919061379c565b611ca9565b005b34801561072657600080fd5b50610741600480360381019061073c9190613928565b611d05565b005b34801561074f57600080fd5b5061076a60048036038101906107659190613a0d565b611d9e565b60405161077791906140bc565b60405180910390f35b34801561078c57600080fd5b50610795611e45565b6040516107a2919061445e565b60405180910390f35b3480156107b757600080fd5b506107c0611e4b565b6040516107cd919061445e565b60405180910390f35b3480156107e257600080fd5b506107fd60048036038101906107f89190613951565b611e51565b005b34801561080b57600080fd5b50610814611ed7565b604051610821919061445e565b60405180910390f35b34801561083657600080fd5b50610851600480360381019061084c9190613711565b611edd565b60405161085e9190614086565b60405180910390f35b34801561087357600080fd5b5061088e600480360381019061088991906136e8565b611f71565b005b34801561089c57600080fd5b506108a5612069565b6040516108b2919061445e565b60405180910390f35b60007f80ac58cd000000000000000000000000000000000000000000000000000000007bffffffffffffffffffffffffffffffffffffffffffffffffffffffff1916827bffffffffffffffffffffffffffffffffffffffffffffffffffffffff1916148061098657507f5b5e139f000000000000000000000000000000000000000000000000000000007bffffffffffffffffffffffffffffffffffffffffffffffffffffffff1916827bffffffffffffffffffffffffffffffffffffffffffffffffffffffff1916145b806109ee57507f780e9d63000000000000000000000000000000000000000000000000000000007bffffffffffffffffffffffffffffffffffffffffffffffffffffffff1916827bffffffffffffffffffffffffffffffffffffffffffffffffffffffff1916145b806109fe57506109fd8261206f565b5b9050919050565b610a0d6120d9565b73ffffffffffffffffffffffffffffffffffffffff16610a2b611972565b73ffffffffffffffffffffffffffffffffffffffff1614610a81576040517f08c379a0000000000000000000000000000000000000000000000000000000008152600401610a789061427e565b60405180910390fd5b8060079080519060200190610a979291906133dd565b5050565b606060018054610aaa9061480f565b80601f0160208091040260200160405190810160405280929190818152602001828054610ad69061480f565b8015610b235780601f10610af857610100808354040283529160200191610b23565b820191906000526020600020905b815481529060010190602001808311610b0657829003601f168201915b5050505050905090565b6000610b38826120e1565b610b77576040517f08c379a0000000000000000000000000000000000000000000000000000000008152600401610b6e9061441e565b60405180910390fd5b6005600083815260200190815260200160002060009054906101000a900473ffffffffffffffffffffffffffffffffffffffff169050919050565b6000610bbd826117eb565b90508073ffffffffffffffffffffffffffffffffffffffff168373ffffffffffffffffffffffffffffffffffffffff161415610c2e576040517f08c379a0000000000000000000000000000000000000000000000000000000008152600401610c259061431e565b60405180910390fd5b8073ffffffffffffffffffffffffffffffffffffffff16610c4d6120d9565b73ffffffffffffffffffffffffffffffffffffffff161480610c7c5750610c7b81610c766120d9565b611edd565b5b610cbb576040517f08c379a0000000000000000000000000000000000000000000000000000000008152600401610cb2906141fe565b60405180910390fd5b610cc68383836120ee565b505050565b60008054905090565b610cdc6120d9565b73ffffffffffffffffffffffffffffffffffffffff16610cfa611972565b73ffffffffffffffffffffffffffffffffffffffff1614610d50576040517f08c379a0000000000000000000000000000000000000000000000000000000008152600401610d479061427e565b60405180910390fd5b80601160146101000a81548160ff02191690831515021790555050565b610d788383836121a0565b505050565b600e5481565b6000610d8e83611801565b8210610dcf576040517f08c379a0000000000000000000000000000000000000000000000000000000008152600401610dc6906140de565b60405180910390fd5b6000610dd9610ccb565b905060008060005b83811015610f3f576000600360008381526020019081526020016000206040518060400160405290816000820160009054906101000a900473ffffffffffffffffffffffffffffffffffffffff1673ffffffffffffffffffffffffffffffffffffffff1673ffffffffffffffffffffffffffffffffffffffff1681526020016000820160149054906101000a900467ffffffffffffffff1667ffffffffffffffff1667ffffffffffffffff16815250509050600073ffffffffffffffffffffffffffffffffffffffff16816000015173ffffffffffffffffffffffffffffffffffffffff1614610ed357806000015192505b8773ffffffffffffffffffffffffffffffffffffffff168373ffffffffffffffffffffffffffffffffffffffff161415610f2b5786841415610f1c578195505050505050610f7b565b8380610f2790614872565b9450505b508080610f3790614872565b915050610de1565b506040517f08c379a0000000000000000000000000000000000000000000000000000000008152600401610f72906143be565b60405180910390fd5b92915050565b60126020528060005260406000206000915054906101000a900460ff1681565b610fa96120d9565b73ffffffffffffffffffffffffffffffffffffffff16610fc7611972565b73ffffffffffffffffffffffffffffffffffffffff161461101d576040517f08c379a00000000000000000000000000000000000000000000000000000000081526004016110149061427e565b60405180910390fd5b6000479050600061102c6120d9565b73ffffffffffffffffffffffffffffffffffffffff168260405161104f9061400a565b60006040518083038185875af1925050503d806000811461108c576040519150601f19603f3d011682016040523d82523d6000602084013e611091565b606091505b50509050806110d5576040517f08c379a00000000000000000000000000000000000000000000000000000000081526004016110cc9061413e565b60405180910390fd5b5050565b6110e16120d9565b73ffffffffffffffffffffffffffffffffffffffff166110ff611972565b73ffffffffffffffffffffffffffffffffffffffff1614611155576040517f08c379a000000000000000000000000000000000000000000000000000000000815260040161114c9061427e565b60405180910390fd5b60005b815181101561120c576000601260008484815181106111a0577f4e487b7100000000000000000000000000000000000000000000000000000000600052603260045260246000fd5b602002602001015173ffffffffffffffffffffffffffffffffffffffff1673ffffffffffffffffffffffffffffffffffffffff16815260200190815260200160002060006101000a81548160ff021916908315150217905550808061120490614872565b915050611158565b5050565b61122b83838360405180602001604052806000815250611ca9565b505050565b6002600a541415611276576040517f08c379a000000000000000000000000000000000000000000000000000000000815260040161126d906143de565b60405180910390fd5b6002600a81905550601160159054906101000a900460ff166112cd576040517f08c379a00000000000000000000000000000000000000000000000000000000081526004016112c4906140fe565b60405180910390fd5b600c54846112d9610ccb565b6112e391906145c0565b1115611324576040517f08c379a000000000000000000000000000000000000000000000000000000000815260040161131b9061437e565b60405180910390fd5b600d54841115611369576040517f08c379a00000000000000000000000000000000000000000000000000000000081526004016113609061429e565b60405180910390fd5b611374838383611767565b80156113ca5750601260008473ffffffffffffffffffffffffffffffffffffffff1673ffffffffffffffffffffffffffffffffffffffff16815260200190815260200160002060009054906101000a900460ff16155b1561147b57836010546113dd9190614647565b341461141e576040517f08c379a00000000000000000000000000000000000000000000000000000000081526004016114159061411e565b60405180910390fd5b6001601260008573ffffffffffffffffffffffffffffffffffffffff1673ffffffffffffffffffffffffffffffffffffffff16815260200190815260200160002060006101000a81548160ff02191690831515021790555061151b565b601160149054906101000a900460ff16156114cb576040517f08c379a00000000000000000000000000000000000000000000000000000000081526004016114c2906141de565b60405180910390fd5b83600f546114d99190614647565b341461151a576040517f08c379a00000000000000000000000000000000000000000000000000000000081526004016115119061411e565b60405180910390fd5b5b6000601160009054906101000a900473ffffffffffffffffffffffffffffffffffffffff1673ffffffffffffffffffffffffffffffffffffffff16605f6064346115659190614616565b61156f9190614647565b60405161157b9061400a565b60006040518083038185875af1925050503d80600081146115b8576040519150601f19603f3d011682016040523d82523d6000602084013e6115bd565b606091505b5050905080611601576040517f08c379a00000000000000000000000000000000000000000000000000000000081526004016115f89061413e565b60405180910390fd5b6000600b60009054906101000a900473ffffffffffffffffffffffffffffffffffffffff1673ffffffffffffffffffffffffffffffffffffffff16600560643461164b9190614616565b6116559190614647565b6040516116619061400a565b60006040518083038185875af1925050503d806000811461169e576040519150601f19603f3d011682016040523d82523d6000602084013e6116a3565b606091505b50509050806116e7576040517f08c379a00000000000000000000000000000000000000000000000000000000081526004016116de9061413e565b60405180910390fd5b6116f18587612759565b50506001600a8190555050505050565b601160149054906101000a900460ff1681565b600061171e610ccb565b821061175f576040517f08c379a00000000000000000000000000000000000000000000000000000000081526004016117569061419e565b60405180910390fd5b819050919050565b6000808460405160200161177b9190613fcb565b6040516020818303038152906040528051906020012090506117e1848480806020026020016040519081016040528093929190818152602001838360200280828437600081840152601f19601f82011690508083019250505050505050600e5483612777565b9150509392505050565b60006117f68261278e565b600001519050919050565b60008073ffffffffffffffffffffffffffffffffffffffff168273ffffffffffffffffffffffffffffffffffffffff161415611872576040517f08c379a00000000000000000000000000000000000000000000000000000000081526004016118699061421e565b60405180910390fd5b600460008373ffffffffffffffffffffffffffffffffffffffff1673ffffffffffffffffffffffffffffffffffffffff16815260200190815260200160002060000160009054906101000a90046fffffffffffffffffffffffffffffffff166fffffffffffffffffffffffffffffffff169050919050565b6118f26120d9565b73ffffffffffffffffffffffffffffffffffffffff16611910611972565b73ffffffffffffffffffffffffffffffffffffffff1614611966576040517f08c379a000000000000000000000000000000000000000000000000000000000815260040161195d9061427e565b60405180910390fd5b6119706000612991565b565b6000600960009054906101000a900473ffffffffffffffffffffffffffffffffffffffff16905090565b6060600280546119ab9061480f565b80601f01602080910402602001604051908101604052809291908181526020018280546119d79061480f565b8015611a245780601f106119f957610100808354040283529160200191611a24565b820191906000526020600020905b815481529060010190602001808311611a0757829003601f168201915b5050505050905090565b601160159054906101000a900460ff1681565b600f5481565b611a4f6120d9565b73ffffffffffffffffffffffffffffffffffffffff168273ffffffffffffffffffffffffffffffffffffffff161415611abd576040517f08c379a0000000000000000000000000000000000000000000000000000000008152600401611ab4906142de565b60405180910390fd5b8060066000611aca6120d9565b73ffffffffffffffffffffffffffffffffffffffff1673ffffffffffffffffffffffffffffffffffffffff16815260200190815260200160002060008473ffffffffffffffffffffffffffffffffffffffff1673ffffffffffffffffffffffffffffffffffffffff16815260200190815260200160002060006101000a81548160ff0219169083151502179055508173ffffffffffffffffffffffffffffffffffffffff16611b776120d9565b73ffffffffffffffffffffffffffffffffffffffff167f17307eab39ab6107e8899845ad3d59bd9653f200f220920489ca2b5937696c3183604051611bbc9190614086565b60405180910390a35050565b611bd06120d9565b73ffffffffffffffffffffffffffffffffffffffff16611bee611972565b73ffffffffffffffffffffffffffffffffffffffff1614611c44576040517f08c379a0000000000000000000000000000000000000000000000000000000008152600401611c3b9061427e565b60405180910390fd5b600c5482611c50610ccb565b611c5a91906145c0565b1115611c9b576040517f08c379a0000000000000000000000000000000000000000000000000000000008152600401611c929061423e565b60405180910390fd5b611ca58183612759565b5050565b611cb48484846121a0565b611cc084848484612a57565b611cff576040517f08c379a0000000000000000000000000000000000000000000000000000000008152600401611cf69061433e565b60405180910390fd5b50505050565b611d0d6120d9565b73ffffffffffffffffffffffffffffffffffffffff16611d2b611972565b73ffffffffffffffffffffffffffffffffffffffff1614611d81576040517f08c379a0000000000000000000000000000000000000000000000000000000008152600401611d789061427e565b60405180910390fd5b80601160156101000a81548160ff02191690831515021790555050565b6060611da9826120e1565b611de8576040517f08c379a0000000000000000000000000000000000000000000000000000000008152600401611ddf906142be565b60405180910390fd5b6000611df2612bee565b90506000815111611e125760405180602001604052806000815250611e3d565b80611e1c84612c80565b604051602001611e2d929190613fe6565b6040516020818303038152906040525b915050919050565b600c5481565b60085481565b611e596120d9565b73ffffffffffffffffffffffffffffffffffffffff16611e77611972565b73ffffffffffffffffffffffffffffffffffffffff1614611ecd576040517f08c379a0000000000000000000000000000000000000000000000000000000008152600401611ec49061427e565b60405180910390fd5b80600e8190555050565b600d5481565b6000600660008473ffffffffffffffffffffffffffffffffffffffff1673ffffffffffffffffffffffffffffffffffffffff16815260200190815260200160002060008373ffffffffffffffffffffffffffffffffffffffff1673ffffffffffffffffffffffffffffffffffffffff16815260200190815260200160002060009054906101000a900460ff16905092915050565b611f796120d9565b73ffffffffffffffffffffffffffffffffffffffff16611f97611972565b73ffffffffffffffffffffffffffffffffffffffff1614611fed576040517f08c379a0000000000000000000000000000000000000000000000000000000008152600401611fe49061427e565b60405180910390fd5b600073ffffffffffffffffffffffffffffffffffffffff168173ffffffffffffffffffffffffffffffffffffffff16141561205d576040517f08c379a00000000000000000000000000000000000000000000000000000000081526004016120549061415e565b60405180910390fd5b61206681612991565b50565b60105481565b60007f01ffc9a7000000000000000000000000000000000000000000000000000000007bffffffffffffffffffffffffffffffffffffffffffffffffffffffff1916827bffffffffffffffffffffffffffffffffffffffffffffffffffffffff1916149050919050565b600033905090565b6000805482109050919050565b826005600084815260200190815260200160002060006101000a81548173ffffffffffffffffffffffffffffffffffffffff021916908373ffffffffffffffffffffffffffffffffffffffff160217905550818373ffffffffffffffffffffffffffffffffffffffff168273ffffffffffffffffffffffffffffffffffffffff167f8c5be1e5ebec7d5bd14f71427d1e84f3dd0314c0f7b2291e5b200ac8c7c3b92560405160405180910390a4505050565b60006121ab8261278e565b90506000816000015173ffffffffffffffffffffffffffffffffffffffff166121d26120d9565b73ffffffffffffffffffffffffffffffffffffffff16148061222e57506121f76120d9565b73ffffffffffffffffffffffffffffffffffffffff1661221684610b2d565b73ffffffffffffffffffffffffffffffffffffffff16145b8061224a575061224982600001516122446120d9565b611edd565b5b90508061228c576040517f08c379a0000000000000000000000000000000000000000000000000000000008152600401612283906142fe565b60405180910390fd5b8473ffffffffffffffffffffffffffffffffffffffff16826000015173ffffffffffffffffffffffffffffffffffffffff16146122fe576040517f08c379a00000000000000000000000000000000000000000000000000000000081526004016122f59061425e565b60405180910390fd5b600073ffffffffffffffffffffffffffffffffffffffff168473ffffffffffffffffffffffffffffffffffffffff16141561236e576040517f08c379a0000000000000000000000000000000000000000000000000000000008152600401612365906141be565b60405180910390fd5b61237b8585856001612e2d565b61238b60008484600001516120ee565b6001600460008773ffffffffffffffffffffffffffffffffffffffff1673ffffffffffffffffffffffffffffffffffffffff16815260200190815260200160002060000160008282829054906101000a90046fffffffffffffffffffffffffffffffff166123f991906146a1565b92506101000a8154816fffffffffffffffffffffffffffffffff02191690836fffffffffffffffffffffffffffffffff1602179055506001600460008673ffffffffffffffffffffffffffffffffffffffff1673ffffffffffffffffffffffffffffffffffffffff16815260200190815260200160002060000160008282829054906101000a90046fffffffffffffffffffffffffffffffff1661249d919061457a565b92506101000a8154816fffffffffffffffffffffffffffffffff02191690836fffffffffffffffffffffffffffffffff16021790555060405180604001604052808573ffffffffffffffffffffffffffffffffffffffff1681526020014267ffffffffffffffff168152506003600085815260200190815260200160002060008201518160000160006101000a81548173ffffffffffffffffffffffffffffffffffffffff021916908373ffffffffffffffffffffffffffffffffffffffff16021790555060208201518160000160146101000a81548167ffffffffffffffff021916908367ffffffffffffffff16021790555090505060006001846125a391906145c0565b9050600073ffffffffffffffffffffffffffffffffffffffff166003600083815260200190815260200160002060000160009054906101000a900473ffffffffffffffffffffffffffffffffffffffff1673ffffffffffffffffffffffffffffffffffffffff1614156126e957612619816120e1565b156126e8576040518060400160405280846000015173ffffffffffffffffffffffffffffffffffffffff168152602001846020015167ffffffffffffffff168152506003600083815260200190815260200160002060008201518160000160006101000a81548173ffffffffffffffffffffffffffffffffffffffff021916908373ffffffffffffffffffffffffffffffffffffffff16021790555060208201518160000160146101000a81548167ffffffffffffffff021916908367ffffffffffffffff1602179055509050505b5b838573ffffffffffffffffffffffffffffffffffffffff168773ffffffffffffffffffffffffffffffffffffffff167fddf252ad1be2c89b69c2b068fc378daa952ba7f163c4a11628f55a4df523b3ef60405160405180910390a46127518686866001612e33565b505050505050565b612773828260405180602001604052806000815250612e39565b5050565b6000826127848584613318565b1490509392505050565b612796613463565b61279f826120e1565b6127de576040517f08c379a00000000000000000000000000000000000000000000000000000000081526004016127d59061417e565b60405180910390fd5b60007f000000000000000000000000000000000000000000000000000000000000000083106128425760017f00000000000000000000000000000000000000000000000000000000000000008461283591906146d5565b61283f91906145c0565b90505b60008390505b818110612950576000600360008381526020019081526020016000206040518060400160405290816000820160009054906101000a900473ffffffffffffffffffffffffffffffffffffffff1673ffffffffffffffffffffffffffffffffffffffff1673ffffffffffffffffffffffffffffffffffffffff1681526020016000820160149054906101000a900467ffffffffffffffff1667ffffffffffffffff1667ffffffffffffffff16815250509050600073ffffffffffffffffffffffffffffffffffffffff16816000015173ffffffffffffffffffffffffffffffffffffffff161461293c5780935050505061298c565b508080612948906147e5565b915050612848565b506040517f08c379a0000000000000000000000000000000000000000000000000000000008152600401612983906143fe565b60405180910390fd5b919050565b6000600960009054906101000a900473ffffffffffffffffffffffffffffffffffffffff16905081600960006101000a81548173ffffffffffffffffffffffffffffffffffffffff021916908373ffffffffffffffffffffffffffffffffffffffff1602179055508173ffffffffffffffffffffffffffffffffffffffff168173ffffffffffffffffffffffffffffffffffffffff167f8be0079c531659141344cd1fd0a4f28419497f9722a3daafe3b4186f6b6457e060405160405180910390a35050565b6000612a788473ffffffffffffffffffffffffffffffffffffffff166133b3565b15612be1578373ffffffffffffffffffffffffffffffffffffffff1663150b7a02612aa16120d9565b8786866040518563ffffffff1660e01b8152600401612ac3949392919061403a565b602060405180830381600087803b158015612add57600080fd5b505af1925050508015612b0e57506040513d601f19601f82011682018060405250810190612b0b91906139a3565b60015b612b91573d8060008114612b3e576040519150601f19603f3d011682016040523d82523d6000602084013e612b43565b606091505b50600081511415612b89576040517f08c379a0000000000000000000000000000000000000000000000000000000008152600401612b809061433e565b60405180910390fd5b805181602001fd5b63150b7a0260e01b7bffffffffffffffffffffffffffffffffffffffffffffffffffffffff1916817bffffffffffffffffffffffffffffffffffffffffffffffffffffffff191614915050612be6565b600190505b949350505050565b606060078054612bfd9061480f565b80601f0160208091040260200160405190810160405280929190818152602001828054612c299061480f565b8015612c765780601f10612c4b57610100808354040283529160200191612c76565b820191906000526020600020905b815481529060010190602001808311612c5957829003601f168201915b5050505050905090565b60606000821415612cc8576040518060400160405280600181526020017f30000000000000000000000000000000000000000000000000000000000000008152509050612e28565b600082905060005b60008214612cfa578080612ce390614872565b915050600a82612cf39190614616565b9150612cd0565b60008167ffffffffffffffff811115612d3c577f4e487b7100000000000000000000000000000000000000000000000000000000600052604160045260246000fd5b6040519080825280601f01601f191660200182016040528015612d6e5781602001600182028036833780820191505090505b5090505b60008514612e2157600182612d8791906146d5565b9150600a85612d9691906148df565b6030612da291906145c0565b60f81b818381518110612dde577f4e487b7100000000000000000000000000000000000000000000000000000000600052603260045260246000fd5b60200101907effffffffffffffffffffffffffffffffffffffffffffffffffffffffffffff1916908160001a905350600a85612e1a9190614616565b9450612d72565b8093505050505b919050565b50505050565b50505050565b600080549050600073ffffffffffffffffffffffffffffffffffffffff168473ffffffffffffffffffffffffffffffffffffffff161415612eaf576040517f08c379a0000000000000000000000000000000000000000000000000000000008152600401612ea69061439e565b60405180910390fd5b612eb8816120e1565b15612ef8576040517f08c379a0000000000000000000000000000000000000000000000000000000008152600401612eef9061435e565b60405180910390fd5b7f0000000000000000000000000000000000000000000000000000000000000000831115612f5b576040517f08c379a0000000000000000000000000000000000000000000000000000000008152600401612f529061443e565b60405180910390fd5b612f686000858386612e2d565b6000600460008673ffffffffffffffffffffffffffffffffffffffff1673ffffffffffffffffffffffffffffffffffffffff1681526020019081526020016000206040518060400160405290816000820160009054906101000a90046fffffffffffffffffffffffffffffffff166fffffffffffffffffffffffffffffffff166fffffffffffffffffffffffffffffffff1681526020016000820160109054906101000a90046fffffffffffffffffffffffffffffffff166fffffffffffffffffffffffffffffffff166fffffffffffffffffffffffffffffffff168152505090506040518060400160405280858360000151613065919061457a565b6fffffffffffffffffffffffffffffffff16815260200185836020015161308c919061457a565b6fffffffffffffffffffffffffffffffff16815250600460008773ffffffffffffffffffffffffffffffffffffffff1673ffffffffffffffffffffffffffffffffffffffff16815260200190815260200160002060008201518160000160006101000a8154816fffffffffffffffffffffffffffffffff02191690836fffffffffffffffffffffffffffffffff16021790555060208201518160000160106101000a8154816fffffffffffffffffffffffffffffffff02191690836fffffffffffffffffffffffffffffffff16021790555090505060405180604001604052808673ffffffffffffffffffffffffffffffffffffffff1681526020014267ffffffffffffffff168152506003600084815260200190815260200160002060008201518160000160006101000a81548173ffffffffffffffffffffffffffffffffffffffff021916908373ffffffffffffffffffffffffffffffffffffffff16021790555060208201518160000160146101000a81548167ffffffffffffffff021916908367ffffffffffffffff160217905550905050600082905060005b858110156132fb57818773ffffffffffffffffffffffffffffffffffffffff16600073ffffffffffffffffffffffffffffffffffffffff167fddf252ad1be2c89b69c2b068fc378daa952ba7f163c4a11628f55a4df523b3ef60405160405180910390a461329b6000888488612a57565b6132da576040517f08c379a00000000000000000000000000000000000000000000000000000000081526004016132d19061433e565b60405180910390fd5b81806132e590614872565b92505080806132f390614872565b91505061322a565b50806000819055506133106000878588612e33565b505050505050565b60008082905060005b84518110156133a8576000858281518110613365577f4e487b7100000000000000000000000000000000000000000000000000000000600052603260045260246000fd5b602002602001015190508083116133875761338083826133c6565b9250613394565b61339181846133c6565b92505b5080806133a090614872565b915050613321565b508091505092915050565b600080823b905060008111915050919050565b600082600052816020526040600020905092915050565b8280546133e99061480f565b90600052602060002090601f01602090048101928261340b5760008555613452565b82601f1061342457805160ff1916838001178555613452565b82800160010185558215613452579182015b82811115613451578251825591602001919060010190613436565b5b50905061345f919061349d565b5090565b6040518060400160405280600073ffffffffffffffffffffffffffffffffffffffff168152602001600067ffffffffffffffff1681525090565b5b808211156134b657600081600090555060010161349e565b5090565b60006134cd6134c88461449e565b614479565b905080838252602082019050828560208602820111156134ec57600080fd5b60005b8581101561351c578161350288826135a2565b8452602084019350602083019250506001810190506134ef565b5050509392505050565b6000613539613534846144ca565b614479565b90508281526020810184848401111561355157600080fd5b61355c8482856147a3565b509392505050565b6000613577613572846144fb565b614479565b90508281526020810184848401111561358f57600080fd5b61359a8482856147a3565b509392505050565b6000813590506135b18161513b565b92915050565b600082601f8301126135c857600080fd5b81356135d88482602086016134ba565b91505092915050565b60008083601f8401126135f357600080fd5b8235905067ffffffffffffffff81111561360c57600080fd5b60208301915083602082028301111561362457600080fd5b9250929050565b60008135905061363a81615152565b92915050565b60008135905061364f81615169565b92915050565b60008135905061366481615180565b92915050565b60008151905061367981615180565b92915050565b600082601f83011261369057600080fd5b81356136a0848260208601613526565b91505092915050565b600082601f8301126136ba57600080fd5b81356136ca848260208601613564565b91505092915050565b6000813590506136e281615197565b92915050565b6000602082840312156136fa57600080fd5b6000613708848285016135a2565b91505092915050565b6000806040838503121561372457600080fd5b6000613732858286016135a2565b9250506020613743858286016135a2565b9150509250929050565b60008060006060848603121561376257600080fd5b6000613770868287016135a2565b9350506020613781868287016135a2565b9250506040613792868287016136d3565b9150509250925092565b600080600080608085870312156137b257600080fd5b60006137c0878288016135a2565b94505060206137d1878288016135a2565b93505060406137e2878288016136d3565b925050606085013567ffffffffffffffff8111156137ff57600080fd5b61380b8782880161367f565b91505092959194509250565b60008060006040848603121561382c57600080fd5b600061383a868287016135a2565b935050602084013567ffffffffffffffff81111561385757600080fd5b613863868287016135e1565b92509250509250925092565b6000806040838503121561388257600080fd5b6000613890858286016135a2565b92505060206138a18582860161362b565b9150509250929050565b600080604083850312156138be57600080fd5b60006138cc858286016135a2565b92505060206138dd858286016136d3565b9150509250929050565b6000602082840312156138f957600080fd5b600082013567ffffffffffffffff81111561391357600080fd5b61391f848285016135b7565b91505092915050565b60006020828403121561393a57600080fd5b60006139488482850161362b565b91505092915050565b60006020828403121561396357600080fd5b600061397184828501613640565b91505092915050565b60006020828403121561398c57600080fd5b600061399a84828501613655565b91505092915050565b6000602082840312156139b557600080fd5b60006139c38482850161366a565b91505092915050565b6000602082840312156139de57600080fd5b600082013567ffffffffffffffff8111156139f857600080fd5b613a04848285016136a9565b91505092915050565b600060208284031215613a1f57600080fd5b6000613a2d848285016136d3565b91505092915050565b60008060408385031215613a4957600080fd5b6000613a57858286016136d3565b9250506020613a68858286016135a2565b9150509250929050565b60008060008060608587031215613a8857600080fd5b6000613a96878288016136d3565b9450506020613aa7878288016135a2565b935050604085013567ffffffffffffffff811115613ac457600080fd5b613ad0878288016135e1565b925092505092959194509250565b613ae781614709565b82525050565b613afe613af982614709565b6148bb565b82525050565b613b0d8161471b565b82525050565b613b1c81614727565b82525050565b6000613b2d8261452c565b613b378185614542565b9350613b478185602086016147b2565b613b50816149cc565b840191505092915050565b6000613b6682614537565b613b70818561455e565b9350613b808185602086016147b2565b613b89816149cc565b840191505092915050565b6000613b9f82614537565b613ba9818561456f565b9350613bb98185602086016147b2565b80840191505092915050565b6000613bd260228361455e565b9150613bdd826149ea565b604082019050919050565b6000613bf5600e8361455e565b9150613c0082614a39565b602082019050919050565b6000613c18601c8361455e565b9150613c2382614a62565b602082019050919050565b6000613c3b600d8361455e565b9150613c4682614a8b565b602082019050919050565b6000613c5e60268361455e565b9150613c6982614ab4565b604082019050919050565b6000613c81602a8361455e565b9150613c8c82614b03565b604082019050919050565b6000613ca460238361455e565b9150613caf82614b52565b604082019050919050565b6000613cc760258361455e565b9150613cd282614ba1565b604082019050919050565b6000613cea60338361455e565b9150613cf582614bf0565b604082019050919050565b6000613d0d60398361455e565b9150613d1882614c3f565b604082019050919050565b6000613d30602b8361455e565b9150613d3b82614c8e565b604082019050919050565b6000613d5360178361455e565b9150613d5e82614cdd565b602082019050919050565b6000613d7660268361455e565b9150613d8182614d06565b604082019050919050565b6000613d9960208361455e565b9150613da482614d55565b602082019050919050565b6000613dbc60238361455e565b9150613dc782614d7e565b604082019050919050565b6000613ddf602f8361455e565b9150613dea82614dcd565b604082019050919050565b6000613e02601a8361455e565b9150613e0d82614e1c565b602082019050919050565b6000613e2560328361455e565b9150613e3082614e45565b604082019050919050565b6000613e4860228361455e565b9150613e5382614e94565b604082019050919050565b6000613e6b600083614553565b9150613e7682614ee3565b600082019050919050565b6000613e8e60338361455e565b9150613e9982614ee6565b604082019050919050565b6000613eb1601d8361455e565b9150613ebc82614f35565b602082019050919050565b6000613ed4600f8361455e565b9150613edf82614f5e565b602082019050919050565b6000613ef760218361455e565b9150613f0282614f87565b604082019050919050565b6000613f1a602e8361455e565b9150613f2582614fd6565b604082019050919050565b6000613f3d601f8361455e565b9150613f4882615025565b602082019050919050565b6000613f60602f8361455e565b9150613f6b8261504e565b604082019050919050565b6000613f83602d8361455e565b9150613f8e8261509d565b604082019050919050565b6000613fa660228361455e565b9150613fb1826150ec565b604082019050919050565b613fc581614799565b82525050565b6000613fd78284613aed565b60148201915081905092915050565b6000613ff28285613b94565b9150613ffe8284613b94565b91508190509392505050565b600061401582613e5e565b9150819050919050565b60006020820190506140346000830184613ade565b92915050565b600060808201905061404f6000830187613ade565b61405c6020830186613ade565b6140696040830185613fbc565b818103606083015261407b8184613b22565b905095945050505050565b600060208201905061409b6000830184613b04565b92915050565b60006020820190506140b66000830184613b13565b92915050565b600060208201905081810360008301526140d68184613b5b565b905092915050565b600060208201905081810360008301526140f781613bc5565b9050919050565b6000602082019050818103600083015261411781613be8565b9050919050565b6000602082019050818103600083015261413781613c0b565b9050919050565b6000602082019050818103600083015261415781613c2e565b9050919050565b6000602082019050818103600083015261417781613c51565b9050919050565b6000602082019050818103600083015261419781613c74565b9050919050565b600060208201905081810360008301526141b781613c97565b9050919050565b600060208201905081810360008301526141d781613cba565b9050919050565b600060208201905081810360008301526141f781613cdd565b9050919050565b6000602082019050818103600083015261421781613d00565b9050919050565b6000602082019050818103600083015261423781613d23565b9050919050565b6000602082019050818103600083015261425781613d46565b9050919050565b6000602082019050818103600083015261427781613d69565b9050919050565b6000602082019050818103600083015261429781613d8c565b9050919050565b600060208201905081810360008301526142b781613daf565b9050919050565b600060208201905081810360008301526142d781613dd2565b9050919050565b600060208201905081810360008301526142f781613df5565b9050919050565b6000602082019050818103600083015261431781613e18565b9050919050565b6000602082019050818103600083015261433781613e3b565b9050919050565b6000602082019050818103600083015261435781613e81565b9050919050565b6000602082019050818103600083015261437781613ea4565b9050919050565b6000602082019050818103600083015261439781613ec7565b9050919050565b600060208201905081810360008301526143b781613eea565b9050919050565b600060208201905081810360008301526143d781613f0d565b9050919050565b600060208201905081810360008301526143f781613f30565b9050919050565b6000602082019050818103600083015261441781613f53565b9050919050565b6000602082019050818103600083015261443781613f76565b9050919050565b6000602082019050818103600083015261445781613f99565b9050919050565b60006020820190506144736000830184613fbc565b92915050565b6000614483614494565b905061448f8282614841565b919050565b6000604051905090565b600067ffffffffffffffff8211156144b9576144b861499d565b5b602082029050602081019050919050565b600067ffffffffffffffff8211156144e5576144e461499d565b5b6144ee826149cc565b9050602081019050919050565b600067ffffffffffffffff8211156145165761451561499d565b5b61451f826149cc565b9050602081019050919050565b600081519050919050565b600081519050919050565b600082825260208201905092915050565b600081905092915050565b600082825260208201905092915050565b600081905092915050565b60006145858261475d565b91506145908361475d565b9250826fffffffffffffffffffffffffffffffff038211156145b5576145b4614910565b5b828201905092915050565b60006145cb82614799565b91506145d683614799565b9250827fffffffffffffffffffffffffffffffffffffffffffffffffffffffffffffffff0382111561460b5761460a614910565b5b828201905092915050565b600061462182614799565b915061462c83614799565b92508261463c5761463b61493f565b5b828204905092915050565b600061465282614799565b915061465d83614799565b9250817fffffffffffffffffffffffffffffffffffffffffffffffffffffffffffffffff048311821515161561469657614695614910565b5b828202905092915050565b60006146ac8261475d565b91506146b78361475d565b9250828210156146ca576146c9614910565b5b828203905092915050565b60006146e082614799565b91506146eb83614799565b9250828210156146fe576146fd614910565b5b828203905092915050565b600061471482614779565b9050919050565b60008115159050919050565b6000819050919050565b60007fffffffff0000000000000000000000000000000000000000000000000000000082169050919050565b60006fffffffffffffffffffffffffffffffff82169050919050565b600073ffffffffffffffffffffffffffffffffffffffff82169050919050565b6000819050919050565b82818337600083830152505050565b60005b838110156147d05780820151818401526020810190506147b5565b838111156147df576000848401525b50505050565b60006147f082614799565b9150600082141561480457614803614910565b5b600182039050919050565b6000600282049050600182168061482757607f821691505b6020821081141561483b5761483a61496e565b5b50919050565b61484a826149cc565b810181811067ffffffffffffffff821117156148695761486861499d565b5b80604052505050565b600061487d82614799565b91507fffffffffffffffffffffffffffffffffffffffffffffffffffffffffffffffff8214156148b0576148af614910565b5b600182019050919050565b60006148c6826148cd565b9050919050565b60006148d8826149dd565b9050919050565b60006148ea82614799565b91506148f583614799565b9250826149055761490461493f565b5b828206905092915050565b7f4e487b7100000000000000000000000000000000000000000000000000000000600052601160045260246000fd5b7f4e487b7100000000000000000000000000000000000000000000000000000000600052601260045260246000fd5b7f4e487b7100000000000000000000000000000000000000000000000000000000600052602260045260246000fd5b7f4e487b7100000000000000000000000000000000000000000000000000000000600052604160045260246000fd5b6000601f19601f8301169050919050565b60008160601b9050919050565b7f455243373231413a206f776e657220696e646578206f7574206f6620626f756e60008201527f6473000000000000000000000000000000000000000000000000000000000000602082015250565b7f53616c6520697320636c6f736564000000000000000000000000000000000000600082015250565b7f496e636f727265637420616d6f756e74206f66204554482073656e7400000000600082015250565b7f5472616e73666572206661696c00000000000000000000000000000000000000600082015250565b7f4f776e61626c653a206e6577206f776e657220697320746865207a65726f206160008201527f6464726573730000000000000000000000000000000000000000000000000000602082015250565b7f455243373231413a206f776e657220717565727920666f72206e6f6e6578697360008201527f74656e7420746f6b656e00000000000000000000000000000000000000000000602082015250565b7f455243373231413a20676c6f62616c20696e646578206f7574206f6620626f7560008201527f6e64730000000000000000000000000000000000000000000000000000000000602082015250565b7f455243373231413a207472616e7366657220746f20746865207a65726f20616460008201527f6472657373000000000000000000000000000000000000000000000000000000602082015250565b7f50757263686173696e67206f6e6c7920617661696c61626c6520666f7220776860008201527f6974656c69737465642061646472657373657300000000000000000000000000602082015250565b7f455243373231413a20617070726f76652063616c6c6572206973206e6f74206f60008201527f776e6572206e6f7220617070726f76656420666f7220616c6c00000000000000602082015250565b7f455243373231413a2062616c616e636520717565727920666f7220746865207a60008201527f65726f2061646472657373000000000000000000000000000000000000000000602082015250565b7f4e6f7420656e6f756768206c65667420746f206d696e74000000000000000000600082015250565b7f455243373231413a207472616e736665722066726f6d20696e636f727265637460008201527f206f776e65720000000000000000000000000000000000000000000000000000602082015250565b7f4f776e61626c653a2063616c6c6572206973206e6f7420746865206f776e6572600082015250565b7f45786365656473206d6178696d756d20616d6f756e742070657220707572636860008201527f6173650000000000000000000000000000000000000000000000000000000000602082015250565b7f4552433732314d657461646174613a2055524920717565727920666f72206e6f60008201527f6e6578697374656e7420746f6b656e0000000000000000000000000000000000602082015250565b7f455243373231413a20617070726f766520746f2063616c6c6572000000000000600082015250565b7f455243373231413a207472616e736665722063616c6c6572206973206e6f742060008201527f6f776e6572206e6f7220617070726f7665640000000000000000000000000000602082015250565b7f455243373231413a20617070726f76616c20746f2063757272656e74206f776e60008201527f6572000000000000000000000000000000000000000000000000000000000000602082015250565b50565b7f455243373231413a207472616e7366657220746f206e6f6e204552433732315260008201527f6563656976657220696d706c656d656e74657200000000000000000000000000602082015250565b7f455243373231413a20746f6b656e20616c7265616479206d696e746564000000600082015250565b7f4e6f7420656e6f756768206c6566740000000000000000000000000000000000600082015250565b7f455243373231413a206d696e7420746f20746865207a65726f2061646472657360008201527f7300000000000000000000000000000000000000000000000000000000000000602082015250565b7f455243373231413a20756e61626c6520746f2067657420746f6b656e206f662060008201527f6f776e657220627920696e646578000000000000000000000000000000000000602082015250565b7f5265656e7472616e637947756172643a207265656e7472616e742063616c6c00600082015250565b7f455243373231413a20756e61626c6520746f2064657465726d696e652074686560008201527f206f776e6572206f6620746f6b656e0000000000000000000000000000000000602082015250565b7f455243373231413a20617070726f76656420717565727920666f72206e6f6e6560008201527f78697374656e7420746f6b656e00000000000000000000000000000000000000602082015250565b7f455243373231413a207175616e7469747920746f206d696e7420746f6f20686960008201527f6768000000000000000000000000000000000000000000000000000000000000602082015250565b61514481614709565b811461514f57600080fd5b50565b61515b8161471b565b811461516657600080fd5b50565b61517281614727565b811461517d57600080fd5b50565b61518981614731565b811461519457600080fd5b50565b6151a081614799565b81146151ab57600080fd5b5056fea2646970667358221220aeec90333d470f07bb6b26e059f2107d862bb6ca3bdbfb150d613e923f2c97e364736f6c63430008040033",
  "linkReferences": {},
  "deployedLinkReferences": {}
}